{
  "_format": "hh-sol-artifact-1",
  "contractName": "HyperDimensionalNft",
  "sourceName": "contracts/Hyper_D_nft.sol",
  "abi": [
    {
      "inputs": [],
      "stateMutability": "nonpayable",
      "type": "constructor"
    },
    {
      "anonymous": false,
      "inputs": [
        {
          "indexed": true,
          "internalType": "address",
          "name": "owner",
          "type": "address"
        },
        {
          "indexed": true,
          "internalType": "address",
          "name": "approved",
          "type": "address"
        },
        {
          "indexed": true,
          "internalType": "uint256",
          "name": "tokenId",
          "type": "uint256"
        }
      ],
      "name": "Approval",
      "type": "event"
    },
    {
      "anonymous": false,
      "inputs": [
        {
          "indexed": true,
          "internalType": "address",
          "name": "owner",
          "type": "address"
        },
        {
          "indexed": true,
          "internalType": "address",
          "name": "operator",
          "type": "address"
        },
        {
          "indexed": false,
          "internalType": "bool",
          "name": "approved",
          "type": "bool"
        }
      ],
      "name": "ApprovalForAll",
      "type": "event"
    },
    {
      "anonymous": false,
      "inputs": [
        {
          "indexed": true,
          "internalType": "address",
          "name": "previousOwner",
          "type": "address"
        },
        {
          "indexed": true,
          "internalType": "address",
          "name": "newOwner",
          "type": "address"
        }
      ],
      "name": "OwnershipTransferred",
      "type": "event"
    },
    {
      "anonymous": false,
      "inputs": [
        {
          "indexed": true,
          "internalType": "address",
          "name": "from",
          "type": "address"
        },
        {
          "indexed": true,
          "internalType": "address",
          "name": "to",
          "type": "address"
        },
        {
          "indexed": true,
          "internalType": "uint256",
          "name": "tokenId",
          "type": "uint256"
        }
      ],
      "name": "Transfer",
      "type": "event"
    },
    {
      "inputs": [],
      "name": "MAX_PUBLIC_MINT",
      "outputs": [
        {
          "internalType": "uint256",
          "name": "",
          "type": "uint256"
        }
      ],
      "stateMutability": "view",
      "type": "function"
    },
    {
      "inputs": [],
      "name": "MAX_SUPPLY",
      "outputs": [
        {
          "internalType": "uint256",
          "name": "",
          "type": "uint256"
        }
      ],
      "stateMutability": "view",
      "type": "function"
    },
    {
      "inputs": [],
      "name": "PRICE_PER_TOKEN",
      "outputs": [
        {
          "internalType": "uint256",
          "name": "",
          "type": "uint256"
        }
      ],
      "stateMutability": "view",
      "type": "function"
    },
    {
      "inputs": [
        {
          "internalType": "address",
          "name": "to",
          "type": "address"
        },
        {
          "internalType": "uint256",
          "name": "tokenId",
          "type": "uint256"
        }
      ],
      "name": "approve",
      "outputs": [],
      "stateMutability": "nonpayable",
      "type": "function"
    },
    {
      "inputs": [
        {
          "internalType": "address",
          "name": "owner",
          "type": "address"
        }
      ],
      "name": "balanceOf",
      "outputs": [
        {
          "internalType": "uint256",
          "name": "",
          "type": "uint256"
        }
      ],
      "stateMutability": "view",
      "type": "function"
    },
    {
      "inputs": [
        {
          "internalType": "uint256",
          "name": "tokenId",
          "type": "uint256"
        }
      ],
      "name": "getApproved",
      "outputs": [
        {
          "internalType": "address",
          "name": "",
          "type": "address"
        }
      ],
      "stateMutability": "view",
      "type": "function"
    },
    {
      "inputs": [
        {
          "internalType": "address",
          "name": "owner",
          "type": "address"
        },
        {
          "internalType": "address",
          "name": "operator",
          "type": "address"
        }
      ],
      "name": "isApprovedForAll",
      "outputs": [
        {
          "internalType": "bool",
          "name": "",
          "type": "bool"
        }
      ],
      "stateMutability": "view",
      "type": "function"
    },
    {
      "inputs": [
        {
          "internalType": "uint256",
          "name": "numberOfTokens",
          "type": "uint256"
        }
      ],
      "name": "mint",
      "outputs": [],
      "stateMutability": "payable",
      "type": "function"
    },
    {
      "inputs": [],
      "name": "name",
      "outputs": [
        {
          "internalType": "string",
          "name": "",
          "type": "string"
        }
      ],
      "stateMutability": "view",
      "type": "function"
    },
    {
      "inputs": [],
      "name": "owner",
      "outputs": [
        {
          "internalType": "address",
          "name": "",
          "type": "address"
        }
      ],
      "stateMutability": "view",
      "type": "function"
    },
    {
      "inputs": [
        {
          "internalType": "uint256",
          "name": "tokenId",
          "type": "uint256"
        }
      ],
      "name": "ownerOf",
      "outputs": [
        {
          "internalType": "address",
          "name": "",
          "type": "address"
        }
      ],
      "stateMutability": "view",
      "type": "function"
    },
    {
      "inputs": [],
      "name": "renounceOwnership",
      "outputs": [],
      "stateMutability": "nonpayable",
      "type": "function"
    },
    {
      "inputs": [
        {
          "internalType": "uint256",
          "name": "n",
          "type": "uint256"
        }
      ],
      "name": "reserve",
      "outputs": [],
      "stateMutability": "nonpayable",
      "type": "function"
    },
    {
      "inputs": [
        {
          "internalType": "address",
          "name": "from",
          "type": "address"
        },
        {
          "internalType": "address",
          "name": "to",
          "type": "address"
        },
        {
          "internalType": "uint256",
          "name": "tokenId",
          "type": "uint256"
        }
      ],
      "name": "safeTransferFrom",
      "outputs": [],
      "stateMutability": "nonpayable",
      "type": "function"
    },
    {
      "inputs": [
        {
          "internalType": "address",
          "name": "from",
          "type": "address"
        },
        {
          "internalType": "address",
          "name": "to",
          "type": "address"
        },
        {
          "internalType": "uint256",
          "name": "tokenId",
          "type": "uint256"
        },
        {
          "internalType": "bytes",
          "name": "_data",
          "type": "bytes"
        }
      ],
      "name": "safeTransferFrom",
      "outputs": [],
      "stateMutability": "nonpayable",
      "type": "function"
    },
    {
      "inputs": [],
      "name": "saleIsActive",
      "outputs": [
        {
          "internalType": "bool",
          "name": "",
          "type": "bool"
        }
      ],
      "stateMutability": "view",
      "type": "function"
    },
    {
      "inputs": [
        {
          "internalType": "address",
          "name": "operator",
          "type": "address"
        },
        {
          "internalType": "bool",
          "name": "approved",
          "type": "bool"
        }
      ],
      "name": "setApprovalForAll",
      "outputs": [],
      "stateMutability": "nonpayable",
      "type": "function"
    },
    {
      "inputs": [
        {
          "internalType": "string",
          "name": "baseURI_",
          "type": "string"
        }
      ],
      "name": "setBaseURI",
      "outputs": [],
      "stateMutability": "nonpayable",
      "type": "function"
    },
    {
      "inputs": [
        {
          "internalType": "bytes4",
          "name": "interfaceId",
          "type": "bytes4"
        }
      ],
      "name": "supportsInterface",
      "outputs": [
        {
          "internalType": "bool",
          "name": "",
          "type": "bool"
        }
      ],
      "stateMutability": "view",
      "type": "function"
    },
    {
      "inputs": [],
      "name": "symbol",
      "outputs": [
        {
          "internalType": "string",
          "name": "",
          "type": "string"
        }
      ],
      "stateMutability": "view",
      "type": "function"
    },
    {
      "inputs": [
        {
          "internalType": "uint256",
          "name": "index",
          "type": "uint256"
        }
      ],
      "name": "tokenByIndex",
      "outputs": [
        {
          "internalType": "uint256",
          "name": "",
          "type": "uint256"
        }
      ],
      "stateMutability": "view",
      "type": "function"
    },
    {
      "inputs": [
        {
          "internalType": "address",
          "name": "owner",
          "type": "address"
        },
        {
          "internalType": "uint256",
          "name": "index",
          "type": "uint256"
        }
      ],
      "name": "tokenOfOwnerByIndex",
      "outputs": [
        {
          "internalType": "uint256",
          "name": "",
          "type": "uint256"
        }
      ],
      "stateMutability": "view",
      "type": "function"
    },
    {
      "inputs": [
        {
          "internalType": "uint256",
          "name": "tokenId",
          "type": "uint256"
        }
      ],
      "name": "tokenURI",
      "outputs": [
        {
          "internalType": "string",
          "name": "",
          "type": "string"
        }
      ],
      "stateMutability": "view",
      "type": "function"
    },
    {
      "inputs": [],
      "name": "totalSupply",
      "outputs": [
        {
          "internalType": "uint256",
          "name": "",
          "type": "uint256"
        }
      ],
      "stateMutability": "view",
      "type": "function"
    },
    {
      "inputs": [
        {
          "internalType": "address",
          "name": "from",
          "type": "address"
        },
        {
          "internalType": "address",
          "name": "to",
          "type": "address"
        },
        {
          "internalType": "uint256",
          "name": "tokenId",
          "type": "uint256"
        }
      ],
      "name": "transferFrom",
      "outputs": [],
      "stateMutability": "nonpayable",
      "type": "function"
    },
    {
      "inputs": [
        {
          "internalType": "address",
          "name": "newOwner",
          "type": "address"
        }
      ],
      "name": "transferOwnership",
      "outputs": [],
      "stateMutability": "nonpayable",
      "type": "function"
    },
    {
      "inputs": [],
      "name": "withdraw",
      "outputs": [],
      "stateMutability": "nonpayable",
      "type": "function"
    }
  ],
  "bytecode": "0x60806040526000600a60146101000a81548160ff0219169083151502179055503480156200002c57600080fd5b5060405180606001604052806024815260200162004006602491396040518060400160405280600681526020017f4859504552440000000000000000000000000000000000000000000000000000815250816000908051906020019062000095929190620001a5565b508060019080519060200190620000ae929190620001a5565b505050620000d1620000c5620000d760201b60201c565b620000df60201b60201c565b620002ba565b600033905090565b6000600a60009054906101000a900473ffffffffffffffffffffffffffffffffffffffff16905081600a60006101000a81548173ffffffffffffffffffffffffffffffffffffffff021916908373ffffffffffffffffffffffffffffffffffffffff1602179055508173ffffffffffffffffffffffffffffffffffffffff168173ffffffffffffffffffffffffffffffffffffffff167f8be0079c531659141344cd1fd0a4f28419497f9722a3daafe3b4186f6b6457e060405160405180910390a35050565b828054620001b39062000284565b90600052602060002090601f016020900481019282620001d7576000855562000223565b82601f10620001f257805160ff191683800117855562000223565b8280016001018555821562000223579182015b828111156200022257825182559160200191906001019062000205565b5b50905062000232919062000236565b5090565b5b808211156200025157600081600090555060010162000237565b5090565b7f4e487b7100000000000000000000000000000000000000000000000000000000600052602260045260246000fd5b600060028204905060018216806200029d57607f821691505b60208210811415620002b457620002b362000255565b5b50919050565b613d3c80620002ca6000396000f3fe60806040526004361061019c5760003560e01c806365f13097116100ec578063a0712d681161008a578063c87b56dd11610064578063c87b56dd146105a5578063e985e9c5146105e2578063eb8d24441461061f578063f2fde38b1461064a5761019c565b8063a0712d6814610537578063a22cb46514610553578063b88d4fde1461057c5761019c565b8063819b25ba116100c6578063819b25ba1461048d578063833b9499146104b65780638da5cb5b146104e157806395d89b411461050c5761019c565b806365f130971461040e57806370a0823114610439578063715018a6146104765761019c565b80632f745c591161015957806342842e0e1161013357806342842e0e146103425780634f6ccce71461036b57806355f804b3146103a85780636352211e146103d15761019c565b80632f745c59146102c357806332cb6b0c146103005780633ccfd60b1461032b5761019c565b806301ffc9a7146101a157806306fdde03146101de578063081812fc14610209578063095ea7b31461024657806318160ddd1461026f57806323b872dd1461029a575b600080fd5b3480156101ad57600080fd5b506101c860048036038101906101c39190612754565b610673565b6040516101d5919061279c565b60405180910390f35b3480156101ea57600080fd5b506101f3610685565b6040516102009190612850565b60405180910390f35b34801561021557600080fd5b50610230600480360381019061022b91906128a8565b610717565b60405161023d9190612916565b60405180910390f35b34801561025257600080fd5b5061026d6004803603810190610268919061295d565b61079c565b005b34801561027b57600080fd5b506102846108b4565b60405161029191906129ac565b60405180910390f35b3480156102a657600080fd5b506102c160048036038101906102bc91906129c7565b6108c1565b005b3480156102cf57600080fd5b506102ea60048036038101906102e5919061295d565b610921565b6040516102f791906129ac565b60405180910390f35b34801561030c57600080fd5b506103156109c6565b60405161032291906129ac565b60405180910390f35b34801561033757600080fd5b506103406109cc565b005b34801561034e57600080fd5b50610369600480360381019061036491906129c7565b610a97565b005b34801561037757600080fd5b50610392600480360381019061038d91906128a8565b610ab7565b60405161039f91906129ac565b60405180910390f35b3480156103b457600080fd5b506103cf60048036038101906103ca9190612b4f565b610b28565b005b3480156103dd57600080fd5b506103f860048036038101906103f391906128a8565b610bbe565b6040516104059190612916565b60405180910390f35b34801561041a57600080fd5b50610423610c70565b60405161043091906129ac565b60405180910390f35b34801561044557600080fd5b50610460600480360381019061045b9190612b98565b610c75565b60405161046d91906129ac565b60405180910390f35b34801561048257600080fd5b5061048b610d2d565b005b34801561049957600080fd5b506104b460048036038101906104af91906128a8565b610db5565b005b3480156104c257600080fd5b506104cb610e75565b6040516104d891906129ac565b60405180910390f35b3480156104ed57600080fd5b506104f6610e81565b6040516105039190612916565b60405180910390f35b34801561051857600080fd5b50610521610eab565b60405161052e9190612850565b60405180910390f35b610551600480360381019061054c91906128a8565b610f3d565b005b34801561055f57600080fd5b5061057a60048036038101906105759190612bf1565b6110ba565b005b34801561058857600080fd5b506105a3600480360381019061059e9190612cd2565b61123b565b005b3480156105b157600080fd5b506105cc60048036038101906105c791906128a8565b61129d565b6040516105d99190612850565b60405180910390f35b3480156105ee57600080fd5b5061060960048036038101906106049190612d55565b611344565b604051610616919061279c565b60405180910390f35b34801561062b57600080fd5b506106346113d8565b604051610641919061279c565b60405180910390f35b34801561065657600080fd5b50610671600480360381019061066c9190612b98565b6113eb565b005b600061067e826114e3565b9050919050565b60606000805461069490612dc4565b80601f01602080910402602001604051908101604052809291908181526020018280546106c090612dc4565b801561070d5780601f106106e25761010080835404028352916020019161070d565b820191906000526020600020905b8154815290600101906020018083116106f057829003601f168201915b5050505050905090565b60006107228261155d565b610761576040517f08c379a000000000000000000000000000000000000000000000000000000000815260040161075890612e68565b60405180910390fd5b6004600083815260200190815260200160002060009054906101000a900473ffffffffffffffffffffffffffffffffffffffff169050919050565b60006107a782610bbe565b90508073ffffffffffffffffffffffffffffffffffffffff168373ffffffffffffffffffffffffffffffffffffffff161415610818576040517f08c379a000000000000000000000000000000000000000000000000000000000815260040161080f90612efa565b60405180910390fd5b8073ffffffffffffffffffffffffffffffffffffffff166108376115c9565b73ffffffffffffffffffffffffffffffffffffffff1614806108665750610865816108606115c9565b611344565b5b6108a5576040517f08c379a000000000000000000000000000000000000000000000000000000000815260040161089c90612f8c565b60405180910390fd5b6108af83836115d1565b505050565b6000600880549050905090565b6108d26108cc6115c9565b8261168a565b610911576040517f08c379a00000000000000000000000000000000000000000000000000000000081526004016109089061301e565b60405180910390fd5b61091c838383611768565b505050565b600061092c83610c75565b821061096d576040517f08c379a0000000000000000000000000000000000000000000000000000000008152600401610964906130b0565b60405180910390fd5b600660008473ffffffffffffffffffffffffffffffffffffffff1673ffffffffffffffffffffffffffffffffffffffff168152602001908152602001600020600083815260200190815260200160002054905092915050565b61271081565b6109d46115c9565b73ffffffffffffffffffffffffffffffffffffffff166109f2610e81565b73ffffffffffffffffffffffffffffffffffffffff1614610a48576040517f08c379a0000000000000000000000000000000000000000000000000000000008152600401610a3f9061311c565b60405180910390fd5b60004790503373ffffffffffffffffffffffffffffffffffffffff166108fc829081150290604051600060405180830381858888f19350505050158015610a93573d6000803e3d6000fd5b5050565b610ab28383836040518060200160405280600081525061123b565b505050565b6000610ac16108b4565b8210610b02576040517f08c379a0000000000000000000000000000000000000000000000000000000008152600401610af9906131ae565b60405180910390fd5b60088281548110610b1657610b156131ce565b5b90600052602060002001549050919050565b610b306115c9565b73ffffffffffffffffffffffffffffffffffffffff16610b4e610e81565b73ffffffffffffffffffffffffffffffffffffffff1614610ba4576040517f08c379a0000000000000000000000000000000000000000000000000000000008152600401610b9b9061311c565b60405180910390fd5b80600b9080519060200190610bba929190612645565b5050565b6000806002600084815260200190815260200160002060009054906101000a900473ffffffffffffffffffffffffffffffffffffffff169050600073ffffffffffffffffffffffffffffffffffffffff168173ffffffffffffffffffffffffffffffffffffffff161415610c67576040517f08c379a0000000000000000000000000000000000000000000000000000000008152600401610c5e9061326f565b60405180910390fd5b80915050919050565b600a81565b60008073ffffffffffffffffffffffffffffffffffffffff168273ffffffffffffffffffffffffffffffffffffffff161415610ce6576040517f08c379a0000000000000000000000000000000000000000000000000000000008152600401610cdd90613301565b60405180910390fd5b600360008373ffffffffffffffffffffffffffffffffffffffff1673ffffffffffffffffffffffffffffffffffffffff168152602001908152602001600020549050919050565b610d356115c9565b73ffffffffffffffffffffffffffffffffffffffff16610d53610e81565b73ffffffffffffffffffffffffffffffffffffffff1614610da9576040517f08c379a0000000000000000000000000000000000000000000000000000000008152600401610da09061311c565b60405180910390fd5b610db360006119c4565b565b610dbd6115c9565b73ffffffffffffffffffffffffffffffffffffffff16610ddb610e81565b73ffffffffffffffffffffffffffffffffffffffff1614610e31576040517f08c379a0000000000000000000000000000000000000000000000000000000008152600401610e289061311c565b60405180910390fd5b6000610e3b6108b4565b905060005b82811015610e7057610e5d338284610e589190613350565b611a8a565b8080610e68906133a6565b915050610e40565b505050565b6701b4fbd92b5f800081565b6000600a60009054906101000a900473ffffffffffffffffffffffffffffffffffffffff16905090565b606060018054610eba90612dc4565b80601f0160208091040260200160405190810160405280929190818152602001828054610ee690612dc4565b8015610f335780601f10610f0857610100808354040283529160200191610f33565b820191906000526020600020905b815481529060010190602001808311610f1657829003601f168201915b5050505050905090565b6000610f476108b4565b9050600a60149054906101000a900460ff16610f98576040517f08c379a0000000000000000000000000000000000000000000000000000000008152600401610f8f90613461565b60405180910390fd5b600a821115610fdc576040517f08c379a0000000000000000000000000000000000000000000000000000000008152600401610fd3906134cd565b60405180910390fd5b6127108282610feb9190613350565b111561102c576040517f08c379a000000000000000000000000000000000000000000000000000000000815260040161102390613539565b60405180910390fd5b34826701b4fbd92b5f80006110419190613559565b1115611082576040517f08c379a0000000000000000000000000000000000000000000000000000000008152600401611079906135ff565b60405180910390fd5b60005b828110156110b5576110a233828461109d9190613350565b611a8a565b80806110ad906133a6565b915050611085565b505050565b6110c26115c9565b73ffffffffffffffffffffffffffffffffffffffff168273ffffffffffffffffffffffffffffffffffffffff161415611130576040517f08c379a00000000000000000000000000000000000000000000000000000000081526004016111279061366b565b60405180910390fd5b806005600061113d6115c9565b73ffffffffffffffffffffffffffffffffffffffff1673ffffffffffffffffffffffffffffffffffffffff16815260200190815260200160002060008473ffffffffffffffffffffffffffffffffffffffff1673ffffffffffffffffffffffffffffffffffffffff16815260200190815260200160002060006101000a81548160ff0219169083151502179055508173ffffffffffffffffffffffffffffffffffffffff166111ea6115c9565b73ffffffffffffffffffffffffffffffffffffffff167f17307eab39ab6107e8899845ad3d59bd9653f200f220920489ca2b5937696c318360405161122f919061279c565b60405180910390a35050565b61124c6112466115c9565b8361168a565b61128b576040517f08c379a00000000000000000000000000000000000000000000000000000000081526004016112829061301e565b60405180910390fd5b61129784848484611aa8565b50505050565b60606112a88261155d565b6112e7576040517f08c379a00000000000000000000000000000000000000000000000000000000081526004016112de906136fd565b60405180910390fd5b60006112f1611b04565b90506000815111611311576040518060200160405280600081525061133c565b8061131b84611b96565b60405160200161132c929190613759565b6040516020818303038152906040525b915050919050565b6000600560008473ffffffffffffffffffffffffffffffffffffffff1673ffffffffffffffffffffffffffffffffffffffff16815260200190815260200160002060008373ffffffffffffffffffffffffffffffffffffffff1673ffffffffffffffffffffffffffffffffffffffff16815260200190815260200160002060009054906101000a900460ff16905092915050565b600a60149054906101000a900460ff1681565b6113f36115c9565b73ffffffffffffffffffffffffffffffffffffffff16611411610e81565b73ffffffffffffffffffffffffffffffffffffffff1614611467576040517f08c379a000000000000000000000000000000000000000000000000000000000815260040161145e9061311c565b60405180910390fd5b600073ffffffffffffffffffffffffffffffffffffffff168173ffffffffffffffffffffffffffffffffffffffff1614156114d7576040517f08c379a00000000000000000000000000000000000000000000000000000000081526004016114ce906137ef565b60405180910390fd5b6114e0816119c4565b50565b60007f780e9d63000000000000000000000000000000000000000000000000000000007bffffffffffffffffffffffffffffffffffffffffffffffffffffffff1916827bffffffffffffffffffffffffffffffffffffffffffffffffffffffff19161480611556575061155582611cf7565b5b9050919050565b60008073ffffffffffffffffffffffffffffffffffffffff166002600084815260200190815260200160002060009054906101000a900473ffffffffffffffffffffffffffffffffffffffff1673ffffffffffffffffffffffffffffffffffffffff1614159050919050565b600033905090565b816004600083815260200190815260200160002060006101000a81548173ffffffffffffffffffffffffffffffffffffffff021916908373ffffffffffffffffffffffffffffffffffffffff160217905550808273ffffffffffffffffffffffffffffffffffffffff1661164483610bbe565b73ffffffffffffffffffffffffffffffffffffffff167f8c5be1e5ebec7d5bd14f71427d1e84f3dd0314c0f7b2291e5b200ac8c7c3b92560405160405180910390a45050565b60006116958261155d565b6116d4576040517f08c379a00000000000000000000000000000000000000000000000000000000081526004016116cb90613881565b60405180910390fd5b60006116df83610bbe565b90508073ffffffffffffffffffffffffffffffffffffffff168473ffffffffffffffffffffffffffffffffffffffff16148061174e57508373ffffffffffffffffffffffffffffffffffffffff1661173684610717565b73ffffffffffffffffffffffffffffffffffffffff16145b8061175f575061175e8185611344565b5b91505092915050565b8273ffffffffffffffffffffffffffffffffffffffff1661178882610bbe565b73ffffffffffffffffffffffffffffffffffffffff16146117de576040517f08c379a00000000000000000000000000000000000000000000000000000000081526004016117d590613913565b60405180910390fd5b600073ffffffffffffffffffffffffffffffffffffffff168273ffffffffffffffffffffffffffffffffffffffff16141561184e576040517f08c379a0000000000000000000000000000000000000000000000000000000008152600401611845906139a5565b60405180910390fd5b611859838383611dd9565b6118646000826115d1565b6001600360008573ffffffffffffffffffffffffffffffffffffffff1673ffffffffffffffffffffffffffffffffffffffff16815260200190815260200160002060008282546118b491906139c5565b925050819055506001600360008473ffffffffffffffffffffffffffffffffffffffff1673ffffffffffffffffffffffffffffffffffffffff168152602001908152602001600020600082825461190b9190613350565b92505081905550816002600083815260200190815260200160002060006101000a81548173ffffffffffffffffffffffffffffffffffffffff021916908373ffffffffffffffffffffffffffffffffffffffff160217905550808273ffffffffffffffffffffffffffffffffffffffff168473ffffffffffffffffffffffffffffffffffffffff167fddf252ad1be2c89b69c2b068fc378daa952ba7f163c4a11628f55a4df523b3ef60405160405180910390a4505050565b6000600a60009054906101000a900473ffffffffffffffffffffffffffffffffffffffff16905081600a60006101000a81548173ffffffffffffffffffffffffffffffffffffffff021916908373ffffffffffffffffffffffffffffffffffffffff1602179055508173ffffffffffffffffffffffffffffffffffffffff168173ffffffffffffffffffffffffffffffffffffffff167f8be0079c531659141344cd1fd0a4f28419497f9722a3daafe3b4186f6b6457e060405160405180910390a35050565b611aa4828260405180602001604052806000815250611de9565b5050565b611ab3848484611768565b611abf84848484611e44565b611afe576040517f08c379a0000000000000000000000000000000000000000000000000000000008152600401611af590613a6b565b60405180910390fd5b50505050565b6060600b8054611b1390612dc4565b80601f0160208091040260200160405190810160405280929190818152602001828054611b3f90612dc4565b8015611b8c5780601f10611b6157610100808354040283529160200191611b8c565b820191906000526020600020905b815481529060010190602001808311611b6f57829003601f168201915b5050505050905090565b60606000821415611bde576040518060400160405280600181526020017f30000000000000000000000000000000000000000000000000000000000000008152509050611cf2565b600082905060005b60008214611c10578080611bf9906133a6565b915050600a82611c099190613aba565b9150611be6565b60008167ffffffffffffffff811115611c2c57611c2b612a24565b5b6040519080825280601f01601f191660200182016040528015611c5e5781602001600182028036833780820191505090505b5090505b60008514611ceb57600182611c7791906139c5565b9150600a85611c869190613aeb565b6030611c929190613350565b60f81b818381518110611ca857611ca76131ce565b5b60200101907effffffffffffffffffffffffffffffffffffffffffffffffffffffffffffff1916908160001a905350600a85611ce49190613aba565b9450611c62565b8093505050505b919050565b60007f80ac58cd000000000000000000000000000000000000000000000000000000007bffffffffffffffffffffffffffffffffffffffffffffffffffffffff1916827bffffffffffffffffffffffffffffffffffffffffffffffffffffffff19161480611dc257507f5b5e139f000000000000000000000000000000000000000000000000000000007bffffffffffffffffffffffffffffffffffffffffffffffffffffffff1916827bffffffffffffffffffffffffffffffffffffffffffffffffffffffff1916145b80611dd25750611dd182611fdb565b5b9050919050565b611de4838383612045565b505050565b611df38383612159565b611e006000848484611e44565b611e3f576040517f08c379a0000000000000000000000000000000000000000000000000000000008152600401611e3690613a6b565b60405180910390fd5b505050565b6000611e658473ffffffffffffffffffffffffffffffffffffffff16612327565b15611fce578373ffffffffffffffffffffffffffffffffffffffff1663150b7a02611e8e6115c9565b8786866040518563ffffffff1660e01b8152600401611eb09493929190613b71565b602060405180830381600087803b158015611eca57600080fd5b505af1925050508015611efb57506040513d601f19601f82011682018060405250810190611ef89190613bd2565b60015b611f7e573d8060008114611f2b576040519150601f19603f3d011682016040523d82523d6000602084013e611f30565b606091505b50600081511415611f76576040517f08c379a0000000000000000000000000000000000000000000000000000000008152600401611f6d90613a6b565b60405180910390fd5b805181602001fd5b63150b7a0260e01b7bffffffffffffffffffffffffffffffffffffffffffffffffffffffff1916817bffffffffffffffffffffffffffffffffffffffffffffffffffffffff191614915050611fd3565b600190505b949350505050565b60007f01ffc9a7000000000000000000000000000000000000000000000000000000007bffffffffffffffffffffffffffffffffffffffffffffffffffffffff1916827bffffffffffffffffffffffffffffffffffffffffffffffffffffffff1916149050919050565b61205083838361233a565b600073ffffffffffffffffffffffffffffffffffffffff168373ffffffffffffffffffffffffffffffffffffffff1614156120935761208e8161233f565b6120d2565b8173ffffffffffffffffffffffffffffffffffffffff168373ffffffffffffffffffffffffffffffffffffffff16146120d1576120d08382612388565b5b5b600073ffffffffffffffffffffffffffffffffffffffff168273ffffffffffffffffffffffffffffffffffffffff16141561211557612110816124f5565b612154565b8273ffffffffffffffffffffffffffffffffffffffff168273ffffffffffffffffffffffffffffffffffffffff16146121535761215282826125c6565b5b5b505050565b600073ffffffffffffffffffffffffffffffffffffffff168273ffffffffffffffffffffffffffffffffffffffff1614156121c9576040517f08c379a00000000000000000000000000000000000000000000000000000000081526004016121c090613c4b565b60405180910390fd5b6121d28161155d565b15612212576040517f08c379a000000000000000000000000000000000000000000000000000000000815260040161220990613cb7565b60405180910390fd5b61221e60008383611dd9565b6001600360008473ffffffffffffffffffffffffffffffffffffffff1673ffffffffffffffffffffffffffffffffffffffff168152602001908152602001600020600082825461226e9190613350565b92505081905550816002600083815260200190815260200160002060006101000a81548173ffffffffffffffffffffffffffffffffffffffff021916908373ffffffffffffffffffffffffffffffffffffffff160217905550808273ffffffffffffffffffffffffffffffffffffffff16600073ffffffffffffffffffffffffffffffffffffffff167fddf252ad1be2c89b69c2b068fc378daa952ba7f163c4a11628f55a4df523b3ef60405160405180910390a45050565b600080823b905060008111915050919050565b505050565b6008805490506009600083815260200190815260200160002081905550600881908060018154018082558091505060019003906000526020600020016000909190919091505550565b6000600161239584610c75565b61239f91906139c5565b9050600060076000848152602001908152602001600020549050818114612484576000600660008673ffffffffffffffffffffffffffffffffffffffff1673ffffffffffffffffffffffffffffffffffffffff168152602001908152602001600020600084815260200190815260200160002054905080600660008773ffffffffffffffffffffffffffffffffffffffff1673ffffffffffffffffffffffffffffffffffffffff168152602001908152602001600020600084815260200190815260200160002081905550816007600083815260200190815260200160002081905550505b6007600084815260200190815260200160002060009055600660008573ffffffffffffffffffffffffffffffffffffffff1673ffffffffffffffffffffffffffffffffffffffff16815260200190815260200160002060008381526020019081526020016000206000905550505050565b6000600160088054905061250991906139c5565b9050600060096000848152602001908152602001600020549050600060088381548110612539576125386131ce565b5b90600052602060002001549050806008838154811061255b5761255a6131ce565b5b9060005260206000200181905550816009600083815260200190815260200160002081905550600960008581526020019081526020016000206000905560088054806125aa576125a9613cd7565b5b6001900381819060005260206000200160009055905550505050565b60006125d183610c75565b905081600660008573ffffffffffffffffffffffffffffffffffffffff1673ffffffffffffffffffffffffffffffffffffffff168152602001908152602001600020600083815260200190815260200160002081905550806007600084815260200190815260200160002081905550505050565b82805461265190612dc4565b90600052602060002090601f01602090048101928261267357600085556126ba565b82601f1061268c57805160ff19168380011785556126ba565b828001600101855582156126ba579182015b828111156126b957825182559160200191906001019061269e565b5b5090506126c791906126cb565b5090565b5b808211156126e45760008160009055506001016126cc565b5090565b6000604051905090565b600080fd5b600080fd5b60007fffffffff0000000000000000000000000000000000000000000000000000000082169050919050565b612731816126fc565b811461273c57600080fd5b50565b60008135905061274e81612728565b92915050565b60006020828403121561276a576127696126f2565b5b60006127788482850161273f565b91505092915050565b60008115159050919050565b61279681612781565b82525050565b60006020820190506127b1600083018461278d565b92915050565b600081519050919050565b600082825260208201905092915050565b60005b838110156127f15780820151818401526020810190506127d6565b83811115612800576000848401525b50505050565b6000601f19601f8301169050919050565b6000612822826127b7565b61282c81856127c2565b935061283c8185602086016127d3565b61284581612806565b840191505092915050565b6000602082019050818103600083015261286a8184612817565b905092915050565b6000819050919050565b61288581612872565b811461289057600080fd5b50565b6000813590506128a28161287c565b92915050565b6000602082840312156128be576128bd6126f2565b5b60006128cc84828501612893565b91505092915050565b600073ffffffffffffffffffffffffffffffffffffffff82169050919050565b6000612900826128d5565b9050919050565b612910816128f5565b82525050565b600060208201905061292b6000830184612907565b92915050565b61293a816128f5565b811461294557600080fd5b50565b60008135905061295781612931565b92915050565b60008060408385031215612974576129736126f2565b5b600061298285828601612948565b925050602061299385828601612893565b9150509250929050565b6129a681612872565b82525050565b60006020820190506129c1600083018461299d565b92915050565b6000806000606084860312156129e0576129df6126f2565b5b60006129ee86828701612948565b93505060206129ff86828701612948565b9250506040612a1086828701612893565b9150509250925092565b600080fd5b600080fd5b7f4e487b7100000000000000000000000000000000000000000000000000000000600052604160045260246000fd5b612a5c82612806565b810181811067ffffffffffffffff82111715612a7b57612a7a612a24565b5b80604052505050565b6000612a8e6126e8565b9050612a9a8282612a53565b919050565b600067ffffffffffffffff821115612aba57612ab9612a24565b5b612ac382612806565b9050602081019050919050565b82818337600083830152505050565b6000612af2612aed84612a9f565b612a84565b905082815260208101848484011115612b0e57612b0d612a1f565b5b612b19848285612ad0565b509392505050565b600082601f830112612b3657612b35612a1a565b5b8135612b46848260208601612adf565b91505092915050565b600060208284031215612b6557612b646126f2565b5b600082013567ffffffffffffffff811115612b8357612b826126f7565b5b612b8f84828501612b21565b91505092915050565b600060208284031215612bae57612bad6126f2565b5b6000612bbc84828501612948565b91505092915050565b612bce81612781565b8114612bd957600080fd5b50565b600081359050612beb81612bc5565b92915050565b60008060408385031215612c0857612c076126f2565b5b6000612c1685828601612948565b9250506020612c2785828601612bdc565b9150509250929050565b600067ffffffffffffffff821115612c4c57612c4b612a24565b5b612c5582612806565b9050602081019050919050565b6000612c75612c7084612c31565b612a84565b905082815260208101848484011115612c9157612c90612a1f565b5b612c9c848285612ad0565b509392505050565b600082601f830112612cb957612cb8612a1a565b5b8135612cc9848260208601612c62565b91505092915050565b60008060008060808587031215612cec57612ceb6126f2565b5b6000612cfa87828801612948565b9450506020612d0b87828801612948565b9350506040612d1c87828801612893565b925050606085013567ffffffffffffffff811115612d3d57612d3c6126f7565b5b612d4987828801612ca4565b91505092959194509250565b60008060408385031215612d6c57612d6b6126f2565b5b6000612d7a85828601612948565b9250506020612d8b85828601612948565b9150509250929050565b7f4e487b7100000000000000000000000000000000000000000000000000000000600052602260045260246000fd5b60006002820490506001821680612ddc57607f821691505b60208210811415612df057612def612d95565b5b50919050565b7f4552433732313a20617070726f76656420717565727920666f72206e6f6e657860008201527f697374656e7420746f6b656e0000000000000000000000000000000000000000602082015250565b6000612e52602c836127c2565b9150612e5d82612df6565b604082019050919050565b60006020820190508181036000830152612e8181612e45565b9050919050565b7f4552433732313a20617070726f76616c20746f2063757272656e74206f776e6560008201527f7200000000000000000000000000000000000000000000000000000000000000602082015250565b6000612ee46021836127c2565b9150612eef82612e88565b604082019050919050565b60006020820190508181036000830152612f1381612ed7565b9050919050565b7f4552433732313a20617070726f76652063616c6c6572206973206e6f74206f7760008201527f6e6572206e6f7220617070726f76656420666f7220616c6c0000000000000000602082015250565b6000612f766038836127c2565b9150612f8182612f1a565b604082019050919050565b60006020820190508181036000830152612fa581612f69565b9050919050565b7f4552433732313a207472616e736665722063616c6c6572206973206e6f74206f60008201527f776e6572206e6f7220617070726f766564000000000000000000000000000000602082015250565b60006130086031836127c2565b915061301382612fac565b604082019050919050565b6000602082019050818103600083015261303781612ffb565b9050919050565b7f455243373231456e756d657261626c653a206f776e657220696e646578206f7560008201527f74206f6620626f756e6473000000000000000000000000000000000000000000602082015250565b600061309a602b836127c2565b91506130a58261303e565b604082019050919050565b600060208201905081810360008301526130c98161308d565b9050919050565b7f4f776e61626c653a2063616c6c6572206973206e6f7420746865206f776e6572600082015250565b60006131066020836127c2565b9150613111826130d0565b602082019050919050565b60006020820190508181036000830152613135816130f9565b9050919050565b7f455243373231456e756d657261626c653a20676c6f62616c20696e646578206f60008201527f7574206f6620626f756e64730000000000000000000000000000000000000000602082015250565b6000613198602c836127c2565b91506131a38261313c565b604082019050919050565b600060208201905081810360008301526131c78161318b565b9050919050565b7f4e487b7100000000000000000000000000000000000000000000000000000000600052603260045260246000fd5b7f4552433732313a206f776e657220717565727920666f72206e6f6e657869737460008201527f656e7420746f6b656e0000000000000000000000000000000000000000000000602082015250565b60006132596029836127c2565b9150613264826131fd565b604082019050919050565b600060208201905081810360008301526132888161324c565b9050919050565b7f4552433732313a2062616c616e636520717565727920666f7220746865207a6560008201527f726f206164647265737300000000000000000000000000000000000000000000602082015250565b60006132eb602a836127c2565b91506132f68261328f565b604082019050919050565b6000602082019050818103600083015261331a816132de565b9050919050565b7f4e487b7100000000000000000000000000000000000000000000000000000000600052601160045260246000fd5b600061335b82612872565b915061336683612872565b9250827fffffffffffffffffffffffffffffffffffffffffffffffffffffffffffffffff0382111561339b5761339a613321565b5b828201905092915050565b60006133b182612872565b91507fffffffffffffffffffffffffffffffffffffffffffffffffffffffffffffffff8214156133e4576133e3613321565b5b600182019050919050565b7f53616c65206d7573742062652061637469766520746f206d696e7420746f6b6560008201527f6e73000000000000000000000000000000000000000000000000000000000000602082015250565b600061344b6022836127c2565b9150613456826133ef565b604082019050919050565b6000602082019050818103600083015261347a8161343e565b9050919050565b7f4578636565646564206d617820746f6b656e2070757263686173650000000000600082015250565b60006134b7601b836127c2565b91506134c282613481565b602082019050919050565b600060208201905081810360008301526134e6816134aa565b9050919050565b7f507572636861736520776f756c6420657863656564206d617820746f6b656e73600082015250565b60006135236020836127c2565b915061352e826134ed565b602082019050919050565b6000602082019050818103600083015261355281613516565b9050919050565b600061356482612872565b915061356f83612872565b9250817fffffffffffffffffffffffffffffffffffffffffffffffffffffffffffffffff04831182151516156135a8576135a7613321565b5b828202905092915050565b7f45746865722076616c75652073656e74206973206e6f7420636f727265637400600082015250565b60006135e9601f836127c2565b91506135f4826135b3565b602082019050919050565b60006020820190508181036000830152613618816135dc565b9050919050565b7f4552433732313a20617070726f766520746f2063616c6c657200000000000000600082015250565b60006136556019836127c2565b91506136608261361f565b602082019050919050565b6000602082019050818103600083015261368481613648565b9050919050565b7f4552433732314d657461646174613a2055524920717565727920666f72206e6f60008201527f6e6578697374656e7420746f6b656e0000000000000000000000000000000000602082015250565b60006136e7602f836127c2565b91506136f28261368b565b604082019050919050565b60006020820190508181036000830152613716816136da565b9050919050565b600081905092915050565b6000613733826127b7565b61373d818561371d565b935061374d8185602086016127d3565b80840191505092915050565b60006137658285613728565b91506137718284613728565b91508190509392505050565b7f4f776e61626c653a206e6577206f776e657220697320746865207a65726f206160008201527f6464726573730000000000000000000000000000000000000000000000000000602082015250565b60006137d96026836127c2565b91506137e48261377d565b604082019050919050565b60006020820190508181036000830152613808816137cc565b9050919050565b7f4552433732313a206f70657261746f7220717565727920666f72206e6f6e657860008201527f697374656e7420746f6b656e0000000000000000000000000000000000000000602082015250565b600061386b602c836127c2565b91506138768261380f565b604082019050919050565b6000602082019050818103600083015261389a8161385e565b9050919050565b7f4552433732313a207472616e73666572206f6620746f6b656e2074686174206960008201527f73206e6f74206f776e0000000000000000000000000000000000000000000000602082015250565b60006138fd6029836127c2565b9150613908826138a1565b604082019050919050565b6000602082019050818103600083015261392c816138f0565b9050919050565b7f4552433732313a207472616e7366657220746f20746865207a65726f2061646460008201527f7265737300000000000000000000000000000000000000000000000000000000602082015250565b600061398f6024836127c2565b915061399a82613933565b604082019050919050565b600060208201905081810360008301526139be81613982565b9050919050565b60006139d082612872565b91506139db83612872565b9250828210156139ee576139ed613321565b5b828203905092915050565b7f4552433732313a207472616e7366657220746f206e6f6e20455243373231526560008201527f63656976657220696d706c656d656e7465720000000000000000000000000000602082015250565b6000613a556032836127c2565b9150613a60826139f9565b604082019050919050565b60006020820190508181036000830152613a8481613a48565b9050919050565b7f4e487b7100000000000000000000000000000000000000000000000000000000600052601260045260246000fd5b6000613ac582612872565b9150613ad083612872565b925082613ae057613adf613a8b565b5b828204905092915050565b6000613af682612872565b9150613b0183612872565b925082613b1157613b10613a8b565b5b828206905092915050565b600081519050919050565b600082825260208201905092915050565b6000613b4382613b1c565b613b4d8185613b27565b9350613b5d8185602086016127d3565b613b6681612806565b840191505092915050565b6000608082019050613b866000830187612907565b613b936020830186612907565b613ba0604083018561299d565b8181036060830152613bb28184613b38565b905095945050505050565b600081519050613bcc81612728565b92915050565b600060208284031215613be857613be76126f2565b5b6000613bf684828501613bbd565b91505092915050565b7f4552433732313a206d696e7420746f20746865207a65726f2061646472657373600082015250565b6000613c356020836127c2565b9150613c4082613bff565b602082019050919050565b60006020820190508181036000830152613c6481613c28565b9050919050565b7f4552433732313a20746f6b656e20616c7265616479206d696e74656400000000600082015250565b6000613ca1601c836127c2565b9150613cac82613c6b565b602082019050919050565b60006020820190508181036000830152613cd081613c94565b9050919050565b7f4e487b7100000000000000000000000000000000000000000000000000000000600052603160045260246000fdfea26469706673582212202af93ff45ede5dc5b0ce210657cf285955f9578fa9c6c1280dd242b58acb63d164736f6c6343000809003348797065722044696d656e73696f6e616c2053796d6d6574726963616c204f626a656374",
  "linkReferences": {},
  "deployedLinkReferences": {}
}