{
  "_format": "hh-sol-artifact-1",
  "contractName": "HyperDimensionalNft",
  "sourceName": "contracts/Hyper_D_nft.sol",
  "abi": [
    {
      "inputs": [],
      "stateMutability": "nonpayable",
      "type": "constructor"
    },
    {
      "anonymous": false,
      "inputs": [
        {
          "indexed": true,
          "internalType": "address",
          "name": "owner",
          "type": "address"
        },
        {
          "indexed": true,
          "internalType": "address",
          "name": "approved",
          "type": "address"
        },
        {
          "indexed": true,
          "internalType": "uint256",
          "name": "tokenId",
          "type": "uint256"
        }
      ],
      "name": "Approval",
      "type": "event"
    },
    {
      "anonymous": false,
      "inputs": [
        {
          "indexed": true,
          "internalType": "address",
          "name": "owner",
          "type": "address"
        },
        {
          "indexed": true,
          "internalType": "address",
          "name": "operator",
          "type": "address"
        },
        {
          "indexed": false,
          "internalType": "bool",
          "name": "approved",
          "type": "bool"
        }
      ],
      "name": "ApprovalForAll",
      "type": "event"
    },
    {
      "anonymous": false,
      "inputs": [
        {
          "indexed": true,
          "internalType": "address",
          "name": "previousOwner",
          "type": "address"
        },
        {
          "indexed": true,
          "internalType": "address",
          "name": "newOwner",
          "type": "address"
        }
      ],
      "name": "OwnershipTransferred",
      "type": "event"
    },
    {
      "anonymous": false,
      "inputs": [
        {
          "indexed": true,
          "internalType": "address",
          "name": "from",
          "type": "address"
        },
        {
          "indexed": true,
          "internalType": "address",
          "name": "to",
          "type": "address"
        },
        {
          "indexed": true,
          "internalType": "uint256",
          "name": "tokenId",
          "type": "uint256"
        }
      ],
      "name": "Transfer",
      "type": "event"
    },
    {
      "inputs": [],
      "name": "MAX_PUBLIC_MINT",
      "outputs": [
        {
          "internalType": "uint256",
          "name": "",
          "type": "uint256"
        }
      ],
      "stateMutability": "view",
      "type": "function"
    },
    {
      "inputs": [],
      "name": "MAX_SUPPLY",
      "outputs": [
        {
          "internalType": "uint256",
          "name": "",
          "type": "uint256"
        }
      ],
      "stateMutability": "view",
      "type": "function"
    },
    {
      "inputs": [],
      "name": "PRICE_PER_TOKEN",
      "outputs": [
        {
          "internalType": "uint256",
          "name": "",
          "type": "uint256"
        }
      ],
      "stateMutability": "view",
      "type": "function"
    },
    {
      "inputs": [
        {
          "internalType": "address",
          "name": "to",
          "type": "address"
        },
        {
          "internalType": "uint256",
          "name": "tokenId",
          "type": "uint256"
        }
      ],
      "name": "approve",
      "outputs": [],
      "stateMutability": "nonpayable",
      "type": "function"
    },
    {
      "inputs": [
        {
          "internalType": "address",
          "name": "owner",
          "type": "address"
        }
      ],
      "name": "balanceOf",
      "outputs": [
        {
          "internalType": "uint256",
          "name": "",
          "type": "uint256"
        }
      ],
      "stateMutability": "view",
      "type": "function"
    },
    {
      "inputs": [
        {
          "internalType": "uint256",
          "name": "tokenId",
          "type": "uint256"
        }
      ],
      "name": "getApproved",
      "outputs": [
        {
          "internalType": "address",
          "name": "",
          "type": "address"
        }
      ],
      "stateMutability": "view",
      "type": "function"
    },
    {
      "inputs": [
        {
          "internalType": "address",
          "name": "owner",
          "type": "address"
        },
        {
          "internalType": "address",
          "name": "operator",
          "type": "address"
        }
      ],
      "name": "isApprovedForAll",
      "outputs": [
        {
          "internalType": "bool",
          "name": "",
          "type": "bool"
        }
      ],
      "stateMutability": "view",
      "type": "function"
    },
    {
      "inputs": [
        {
          "internalType": "uint256",
          "name": "numberOfTokens",
          "type": "uint256"
        }
      ],
      "name": "mint",
      "outputs": [],
      "stateMutability": "payable",
      "type": "function"
    },
    {
      "inputs": [],
      "name": "name",
      "outputs": [
        {
          "internalType": "string",
          "name": "",
          "type": "string"
        }
      ],
      "stateMutability": "view",
      "type": "function"
    },
    {
      "inputs": [],
      "name": "owner",
      "outputs": [
        {
          "internalType": "address",
          "name": "",
          "type": "address"
        }
      ],
      "stateMutability": "view",
      "type": "function"
    },
    {
      "inputs": [
        {
          "internalType": "uint256",
          "name": "tokenId",
          "type": "uint256"
        }
      ],
      "name": "ownerOf",
      "outputs": [
        {
          "internalType": "address",
          "name": "",
          "type": "address"
        }
      ],
      "stateMutability": "view",
      "type": "function"
    },
    {
      "inputs": [],
      "name": "renounceOwnership",
      "outputs": [],
      "stateMutability": "nonpayable",
      "type": "function"
    },
    {
      "inputs": [
        {
          "internalType": "uint256",
          "name": "n",
          "type": "uint256"
        }
      ],
      "name": "reserve",
      "outputs": [],
      "stateMutability": "nonpayable",
      "type": "function"
    },
    {
      "inputs": [
        {
          "internalType": "address",
          "name": "from",
          "type": "address"
        },
        {
          "internalType": "address",
          "name": "to",
          "type": "address"
        },
        {
          "internalType": "uint256",
          "name": "tokenId",
          "type": "uint256"
        }
      ],
      "name": "safeTransferFrom",
      "outputs": [],
      "stateMutability": "nonpayable",
      "type": "function"
    },
    {
      "inputs": [
        {
          "internalType": "address",
          "name": "from",
          "type": "address"
        },
        {
          "internalType": "address",
          "name": "to",
          "type": "address"
        },
        {
          "internalType": "uint256",
          "name": "tokenId",
          "type": "uint256"
        },
        {
          "internalType": "bytes",
          "name": "_data",
          "type": "bytes"
        }
      ],
      "name": "safeTransferFrom",
      "outputs": [],
      "stateMutability": "nonpayable",
      "type": "function"
    },
    {
      "inputs": [],
      "name": "saleIsActive",
      "outputs": [
        {
          "internalType": "bool",
          "name": "",
          "type": "bool"
        }
      ],
      "stateMutability": "view",
      "type": "function"
    },
    {
      "inputs": [
        {
          "internalType": "address",
          "name": "operator",
          "type": "address"
        },
        {
          "internalType": "bool",
          "name": "approved",
          "type": "bool"
        }
      ],
      "name": "setApprovalForAll",
      "outputs": [],
      "stateMutability": "nonpayable",
      "type": "function"
    },
    {
      "inputs": [
        {
          "internalType": "string",
          "name": "baseURI_",
          "type": "string"
        }
      ],
      "name": "setBaseURI",
      "outputs": [],
      "stateMutability": "nonpayable",
      "type": "function"
    },
    {
      "inputs": [
        {
          "internalType": "bool",
          "name": "newState",
          "type": "bool"
        }
      ],
      "name": "setSaleState",
      "outputs": [],
      "stateMutability": "nonpayable",
      "type": "function"
    },
    {
      "inputs": [
        {
          "internalType": "bytes4",
          "name": "interfaceId",
          "type": "bytes4"
        }
      ],
      "name": "supportsInterface",
      "outputs": [
        {
          "internalType": "bool",
          "name": "",
          "type": "bool"
        }
      ],
      "stateMutability": "view",
      "type": "function"
    },
    {
      "inputs": [],
      "name": "symbol",
      "outputs": [
        {
          "internalType": "string",
          "name": "",
          "type": "string"
        }
      ],
      "stateMutability": "view",
      "type": "function"
    },
    {
      "inputs": [
        {
          "internalType": "uint256",
          "name": "index",
          "type": "uint256"
        }
      ],
      "name": "tokenByIndex",
      "outputs": [
        {
          "internalType": "uint256",
          "name": "",
          "type": "uint256"
        }
      ],
      "stateMutability": "view",
      "type": "function"
    },
    {
      "inputs": [
        {
          "internalType": "address",
          "name": "owner",
          "type": "address"
        },
        {
          "internalType": "uint256",
          "name": "index",
          "type": "uint256"
        }
      ],
      "name": "tokenOfOwnerByIndex",
      "outputs": [
        {
          "internalType": "uint256",
          "name": "",
          "type": "uint256"
        }
      ],
      "stateMutability": "view",
      "type": "function"
    },
    {
      "inputs": [
        {
          "internalType": "uint256",
          "name": "tokenId",
          "type": "uint256"
        }
      ],
      "name": "tokenURI",
      "outputs": [
        {
          "internalType": "string",
          "name": "",
          "type": "string"
        }
      ],
      "stateMutability": "view",
      "type": "function"
    },
    {
      "inputs": [],
      "name": "totalSupply",
      "outputs": [
        {
          "internalType": "uint256",
          "name": "",
          "type": "uint256"
        }
      ],
      "stateMutability": "view",
      "type": "function"
    },
    {
      "inputs": [
        {
          "internalType": "address",
          "name": "from",
          "type": "address"
        },
        {
          "internalType": "address",
          "name": "to",
          "type": "address"
        },
        {
          "internalType": "uint256",
          "name": "tokenId",
          "type": "uint256"
        }
      ],
      "name": "transferFrom",
      "outputs": [],
      "stateMutability": "nonpayable",
      "type": "function"
    },
    {
      "inputs": [
        {
          "internalType": "address",
          "name": "newOwner",
          "type": "address"
        }
      ],
      "name": "transferOwnership",
      "outputs": [],
      "stateMutability": "nonpayable",
      "type": "function"
    },
    {
      "inputs": [],
      "name": "withdraw",
      "outputs": [],
      "stateMutability": "nonpayable",
      "type": "function"
    }
  ],
  "bytecode": "0x60806040526000600a60146101000a81548160ff0219169083151502179055503480156200002c57600080fd5b5060405180606001604052806024815260200162004110602491396040518060400160405280600681526020017f4859504552440000000000000000000000000000000000000000000000000000815250816000908051906020019062000095929190620001a5565b508060019080519060200190620000ae929190620001a5565b505050620000d1620000c5620000d760201b60201c565b620000df60201b60201c565b620002ba565b600033905090565b6000600a60009054906101000a900473ffffffffffffffffffffffffffffffffffffffff16905081600a60006101000a81548173ffffffffffffffffffffffffffffffffffffffff021916908373ffffffffffffffffffffffffffffffffffffffff1602179055508173ffffffffffffffffffffffffffffffffffffffff168173ffffffffffffffffffffffffffffffffffffffff167f8be0079c531659141344cd1fd0a4f28419497f9722a3daafe3b4186f6b6457e060405160405180910390a35050565b828054620001b39062000284565b90600052602060002090601f016020900481019282620001d7576000855562000223565b82601f10620001f257805160ff191683800117855562000223565b8280016001018555821562000223579182015b828111156200022257825182559160200191906001019062000205565b5b50905062000232919062000236565b5090565b5b808211156200025157600081600090555060010162000237565b5090565b7f4e487b7100000000000000000000000000000000000000000000000000000000600052602260045260246000fd5b600060028204905060018216806200029d57607f821691505b60208210811415620002b457620002b362000255565b5b50919050565b613e4680620002ca6000396000f3fe6080604052600436106101b75760003560e01c806370a08231116100ec578063a22cb4651161008a578063c87b56dd11610064578063c87b56dd146105e9578063e985e9c514610626578063eb8d244414610663578063f2fde38b1461068e576101b7565b8063a22cb4651461056e578063b88d4fde14610597578063c4e37095146105c0576101b7565b8063833b9499116100c6578063833b9499146104d15780638da5cb5b146104fc57806395d89b4114610527578063a0712d6814610552576101b7565b806370a0823114610454578063715018a614610491578063819b25ba146104a8576101b7565b806332cb6b0c116101595780634f6ccce7116101335780634f6ccce71461038657806355f804b3146103c35780636352211e146103ec57806365f1309714610429576101b7565b806332cb6b0c1461031b5780633ccfd60b1461034657806342842e0e1461035d576101b7565b8063095ea7b311610195578063095ea7b31461026157806318160ddd1461028a57806323b872dd146102b55780632f745c59146102de576101b7565b806301ffc9a7146101bc57806306fdde03146101f9578063081812fc14610224575b600080fd5b3480156101c857600080fd5b506101e360048036038101906101de9190612831565b6106b7565b6040516101f09190612879565b60405180910390f35b34801561020557600080fd5b5061020e6106c9565b60405161021b919061292d565b60405180910390f35b34801561023057600080fd5b5061024b60048036038101906102469190612985565b61075b565b60405161025891906129f3565b60405180910390f35b34801561026d57600080fd5b5061028860048036038101906102839190612a3a565b6107e0565b005b34801561029657600080fd5b5061029f6108f8565b6040516102ac9190612a89565b60405180910390f35b3480156102c157600080fd5b506102dc60048036038101906102d79190612aa4565b610905565b005b3480156102ea57600080fd5b5061030560048036038101906103009190612a3a565b610965565b6040516103129190612a89565b60405180910390f35b34801561032757600080fd5b50610330610a0a565b60405161033d9190612a89565b60405180910390f35b34801561035257600080fd5b5061035b610a10565b005b34801561036957600080fd5b50610384600480360381019061037f9190612aa4565b610adb565b005b34801561039257600080fd5b506103ad60048036038101906103a89190612985565b610afb565b6040516103ba9190612a89565b60405180910390f35b3480156103cf57600080fd5b506103ea60048036038101906103e59190612c2c565b610b6c565b005b3480156103f857600080fd5b50610413600480360381019061040e9190612985565b610c02565b60405161042091906129f3565b60405180910390f35b34801561043557600080fd5b5061043e610cb4565b60405161044b9190612a89565b60405180910390f35b34801561046057600080fd5b5061047b60048036038101906104769190612c75565b610cb9565b6040516104889190612a89565b60405180910390f35b34801561049d57600080fd5b506104a6610d71565b005b3480156104b457600080fd5b506104cf60048036038101906104ca9190612985565b610df9565b005b3480156104dd57600080fd5b506104e6610eb9565b6040516104f39190612a89565b60405180910390f35b34801561050857600080fd5b50610511610ec5565b60405161051e91906129f3565b60405180910390f35b34801561053357600080fd5b5061053c610eef565b604051610549919061292d565b60405180910390f35b61056c60048036038101906105679190612985565b610f81565b005b34801561057a57600080fd5b5061059560048036038101906105909190612cce565b6110fe565b005b3480156105a357600080fd5b506105be60048036038101906105b99190612daf565b61127f565b005b3480156105cc57600080fd5b506105e760048036038101906105e29190612e32565b6112e1565b005b3480156105f557600080fd5b50610610600480360381019061060b9190612985565b61137a565b60405161061d919061292d565b60405180910390f35b34801561063257600080fd5b5061064d60048036038101906106489190612e5f565b611421565b60405161065a9190612879565b60405180910390f35b34801561066f57600080fd5b506106786114b5565b6040516106859190612879565b60405180910390f35b34801561069a57600080fd5b506106b560048036038101906106b09190612c75565b6114c8565b005b60006106c2826115c0565b9050919050565b6060600080546106d890612ece565b80601f016020809104026020016040519081016040528092919081815260200182805461070490612ece565b80156107515780601f1061072657610100808354040283529160200191610751565b820191906000526020600020905b81548152906001019060200180831161073457829003601f168201915b5050505050905090565b60006107668261163a565b6107a5576040517f08c379a000000000000000000000000000000000000000000000000000000000815260040161079c90612f72565b60405180910390fd5b6004600083815260200190815260200160002060009054906101000a900473ffffffffffffffffffffffffffffffffffffffff169050919050565b60006107eb82610c02565b90508073ffffffffffffffffffffffffffffffffffffffff168373ffffffffffffffffffffffffffffffffffffffff16141561085c576040517f08c379a000000000000000000000000000000000000000000000000000000000815260040161085390613004565b60405180910390fd5b8073ffffffffffffffffffffffffffffffffffffffff1661087b6116a6565b73ffffffffffffffffffffffffffffffffffffffff1614806108aa57506108a9816108a46116a6565b611421565b5b6108e9576040517f08c379a00000000000000000000000000000000000000000000000000000000081526004016108e090613096565b60405180910390fd5b6108f383836116ae565b505050565b6000600880549050905090565b6109166109106116a6565b82611767565b610955576040517f08c379a000000000000000000000000000000000000000000000000000000000815260040161094c90613128565b60405180910390fd5b610960838383611845565b505050565b600061097083610cb9565b82106109b1576040517f08c379a00000000000000000000000000000000000000000000000000000000081526004016109a8906131ba565b60405180910390fd5b600660008473ffffffffffffffffffffffffffffffffffffffff1673ffffffffffffffffffffffffffffffffffffffff168152602001908152602001600020600083815260200190815260200160002054905092915050565b61271081565b610a186116a6565b73ffffffffffffffffffffffffffffffffffffffff16610a36610ec5565b73ffffffffffffffffffffffffffffffffffffffff1614610a8c576040517f08c379a0000000000000000000000000000000000000000000000000000000008152600401610a8390613226565b60405180910390fd5b60004790503373ffffffffffffffffffffffffffffffffffffffff166108fc829081150290604051600060405180830381858888f19350505050158015610ad7573d6000803e3d6000fd5b5050565b610af68383836040518060200160405280600081525061127f565b505050565b6000610b056108f8565b8210610b46576040517f08c379a0000000000000000000000000000000000000000000000000000000008152600401610b3d906132b8565b60405180910390fd5b60088281548110610b5a57610b596132d8565b5b90600052602060002001549050919050565b610b746116a6565b73ffffffffffffffffffffffffffffffffffffffff16610b92610ec5565b73ffffffffffffffffffffffffffffffffffffffff1614610be8576040517f08c379a0000000000000000000000000000000000000000000000000000000008152600401610bdf90613226565b60405180910390fd5b80600b9080519060200190610bfe929190612722565b5050565b6000806002600084815260200190815260200160002060009054906101000a900473ffffffffffffffffffffffffffffffffffffffff169050600073ffffffffffffffffffffffffffffffffffffffff168173ffffffffffffffffffffffffffffffffffffffff161415610cab576040517f08c379a0000000000000000000000000000000000000000000000000000000008152600401610ca290613379565b60405180910390fd5b80915050919050565b600a81565b60008073ffffffffffffffffffffffffffffffffffffffff168273ffffffffffffffffffffffffffffffffffffffff161415610d2a576040517f08c379a0000000000000000000000000000000000000000000000000000000008152600401610d219061340b565b60405180910390fd5b600360008373ffffffffffffffffffffffffffffffffffffffff1673ffffffffffffffffffffffffffffffffffffffff168152602001908152602001600020549050919050565b610d796116a6565b73ffffffffffffffffffffffffffffffffffffffff16610d97610ec5565b73ffffffffffffffffffffffffffffffffffffffff1614610ded576040517f08c379a0000000000000000000000000000000000000000000000000000000008152600401610de490613226565b60405180910390fd5b610df76000611aa1565b565b610e016116a6565b73ffffffffffffffffffffffffffffffffffffffff16610e1f610ec5565b73ffffffffffffffffffffffffffffffffffffffff1614610e75576040517f08c379a0000000000000000000000000000000000000000000000000000000008152600401610e6c90613226565b60405180910390fd5b6000610e7f6108f8565b905060005b82811015610eb457610ea1338284610e9c919061345a565b611b67565b8080610eac906134b0565b915050610e84565b505050565b6701b4fbd92b5f800081565b6000600a60009054906101000a900473ffffffffffffffffffffffffffffffffffffffff16905090565b606060018054610efe90612ece565b80601f0160208091040260200160405190810160405280929190818152602001828054610f2a90612ece565b8015610f775780601f10610f4c57610100808354040283529160200191610f77565b820191906000526020600020905b815481529060010190602001808311610f5a57829003601f168201915b5050505050905090565b6000610f8b6108f8565b9050600a60149054906101000a900460ff16610fdc576040517f08c379a0000000000000000000000000000000000000000000000000000000008152600401610fd39061356b565b60405180910390fd5b600a821115611020576040517f08c379a0000000000000000000000000000000000000000000000000000000008152600401611017906135d7565b60405180910390fd5b612710828261102f919061345a565b1115611070576040517f08c379a000000000000000000000000000000000000000000000000000000000815260040161106790613643565b60405180910390fd5b34826701b4fbd92b5f80006110859190613663565b11156110c6576040517f08c379a00000000000000000000000000000000000000000000000000000000081526004016110bd90613709565b60405180910390fd5b60005b828110156110f9576110e63382846110e1919061345a565b611b67565b80806110f1906134b0565b9150506110c9565b505050565b6111066116a6565b73ffffffffffffffffffffffffffffffffffffffff168273ffffffffffffffffffffffffffffffffffffffff161415611174576040517f08c379a000000000000000000000000000000000000000000000000000000000815260040161116b90613775565b60405180910390fd5b80600560006111816116a6565b73ffffffffffffffffffffffffffffffffffffffff1673ffffffffffffffffffffffffffffffffffffffff16815260200190815260200160002060008473ffffffffffffffffffffffffffffffffffffffff1673ffffffffffffffffffffffffffffffffffffffff16815260200190815260200160002060006101000a81548160ff0219169083151502179055508173ffffffffffffffffffffffffffffffffffffffff1661122e6116a6565b73ffffffffffffffffffffffffffffffffffffffff167f17307eab39ab6107e8899845ad3d59bd9653f200f220920489ca2b5937696c31836040516112739190612879565b60405180910390a35050565b61129061128a6116a6565b83611767565b6112cf576040517f08c379a00000000000000000000000000000000000000000000000000000000081526004016112c690613128565b60405180910390fd5b6112db84848484611b85565b50505050565b6112e96116a6565b73ffffffffffffffffffffffffffffffffffffffff16611307610ec5565b73ffffffffffffffffffffffffffffffffffffffff161461135d576040517f08c379a000000000000000000000000000000000000000000000000000000000815260040161135490613226565b60405180910390fd5b80600a60146101000a81548160ff02191690831515021790555050565b60606113858261163a565b6113c4576040517f08c379a00000000000000000000000000000000000000000000000000000000081526004016113bb90613807565b60405180910390fd5b60006113ce611be1565b905060008151116113ee5760405180602001604052806000815250611419565b806113f884611c73565b604051602001611409929190613863565b6040516020818303038152906040525b915050919050565b6000600560008473ffffffffffffffffffffffffffffffffffffffff1673ffffffffffffffffffffffffffffffffffffffff16815260200190815260200160002060008373ffffffffffffffffffffffffffffffffffffffff1673ffffffffffffffffffffffffffffffffffffffff16815260200190815260200160002060009054906101000a900460ff16905092915050565b600a60149054906101000a900460ff1681565b6114d06116a6565b73ffffffffffffffffffffffffffffffffffffffff166114ee610ec5565b73ffffffffffffffffffffffffffffffffffffffff1614611544576040517f08c379a000000000000000000000000000000000000000000000000000000000815260040161153b90613226565b60405180910390fd5b600073ffffffffffffffffffffffffffffffffffffffff168173ffffffffffffffffffffffffffffffffffffffff1614156115b4576040517f08c379a00000000000000000000000000000000000000000000000000000000081526004016115ab906138f9565b60405180910390fd5b6115bd81611aa1565b50565b60007f780e9d63000000000000000000000000000000000000000000000000000000007bffffffffffffffffffffffffffffffffffffffffffffffffffffffff1916827bffffffffffffffffffffffffffffffffffffffffffffffffffffffff19161480611633575061163282611dd4565b5b9050919050565b60008073ffffffffffffffffffffffffffffffffffffffff166002600084815260200190815260200160002060009054906101000a900473ffffffffffffffffffffffffffffffffffffffff1673ffffffffffffffffffffffffffffffffffffffff1614159050919050565b600033905090565b816004600083815260200190815260200160002060006101000a81548173ffffffffffffffffffffffffffffffffffffffff021916908373ffffffffffffffffffffffffffffffffffffffff160217905550808273ffffffffffffffffffffffffffffffffffffffff1661172183610c02565b73ffffffffffffffffffffffffffffffffffffffff167f8c5be1e5ebec7d5bd14f71427d1e84f3dd0314c0f7b2291e5b200ac8c7c3b92560405160405180910390a45050565b60006117728261163a565b6117b1576040517f08c379a00000000000000000000000000000000000000000000000000000000081526004016117a89061398b565b60405180910390fd5b60006117bc83610c02565b90508073ffffffffffffffffffffffffffffffffffffffff168473ffffffffffffffffffffffffffffffffffffffff16148061182b57508373ffffffffffffffffffffffffffffffffffffffff166118138461075b565b73ffffffffffffffffffffffffffffffffffffffff16145b8061183c575061183b8185611421565b5b91505092915050565b8273ffffffffffffffffffffffffffffffffffffffff1661186582610c02565b73ffffffffffffffffffffffffffffffffffffffff16146118bb576040517f08c379a00000000000000000000000000000000000000000000000000000000081526004016118b290613a1d565b60405180910390fd5b600073ffffffffffffffffffffffffffffffffffffffff168273ffffffffffffffffffffffffffffffffffffffff16141561192b576040517f08c379a000000000000000000000000000000000000000000000000000000000815260040161192290613aaf565b60405180910390fd5b611936838383611eb6565b6119416000826116ae565b6001600360008573ffffffffffffffffffffffffffffffffffffffff1673ffffffffffffffffffffffffffffffffffffffff16815260200190815260200160002060008282546119919190613acf565b925050819055506001600360008473ffffffffffffffffffffffffffffffffffffffff1673ffffffffffffffffffffffffffffffffffffffff16815260200190815260200160002060008282546119e8919061345a565b92505081905550816002600083815260200190815260200160002060006101000a81548173ffffffffffffffffffffffffffffffffffffffff021916908373ffffffffffffffffffffffffffffffffffffffff160217905550808273ffffffffffffffffffffffffffffffffffffffff168473ffffffffffffffffffffffffffffffffffffffff167fddf252ad1be2c89b69c2b068fc378daa952ba7f163c4a11628f55a4df523b3ef60405160405180910390a4505050565b6000600a60009054906101000a900473ffffffffffffffffffffffffffffffffffffffff16905081600a60006101000a81548173ffffffffffffffffffffffffffffffffffffffff021916908373ffffffffffffffffffffffffffffffffffffffff1602179055508173ffffffffffffffffffffffffffffffffffffffff168173ffffffffffffffffffffffffffffffffffffffff167f8be0079c531659141344cd1fd0a4f28419497f9722a3daafe3b4186f6b6457e060405160405180910390a35050565b611b81828260405180602001604052806000815250611ec6565b5050565b611b90848484611845565b611b9c84848484611f21565b611bdb576040517f08c379a0000000000000000000000000000000000000000000000000000000008152600401611bd290613b75565b60405180910390fd5b50505050565b6060600b8054611bf090612ece565b80601f0160208091040260200160405190810160405280929190818152602001828054611c1c90612ece565b8015611c695780601f10611c3e57610100808354040283529160200191611c69565b820191906000526020600020905b815481529060010190602001808311611c4c57829003601f168201915b5050505050905090565b60606000821415611cbb576040518060400160405280600181526020017f30000000000000000000000000000000000000000000000000000000000000008152509050611dcf565b600082905060005b60008214611ced578080611cd6906134b0565b915050600a82611ce69190613bc4565b9150611cc3565b60008167ffffffffffffffff811115611d0957611d08612b01565b5b6040519080825280601f01601f191660200182016040528015611d3b5781602001600182028036833780820191505090505b5090505b60008514611dc857600182611d549190613acf565b9150600a85611d639190613bf5565b6030611d6f919061345a565b60f81b818381518110611d8557611d846132d8565b5b60200101907effffffffffffffffffffffffffffffffffffffffffffffffffffffffffffff1916908160001a905350600a85611dc19190613bc4565b9450611d3f565b8093505050505b919050565b60007f80ac58cd000000000000000000000000000000000000000000000000000000007bffffffffffffffffffffffffffffffffffffffffffffffffffffffff1916827bffffffffffffffffffffffffffffffffffffffffffffffffffffffff19161480611e9f57507f5b5e139f000000000000000000000000000000000000000000000000000000007bffffffffffffffffffffffffffffffffffffffffffffffffffffffff1916827bffffffffffffffffffffffffffffffffffffffffffffffffffffffff1916145b80611eaf5750611eae826120b8565b5b9050919050565b611ec1838383612122565b505050565b611ed08383612236565b611edd6000848484611f21565b611f1c576040517f08c379a0000000000000000000000000000000000000000000000000000000008152600401611f1390613b75565b60405180910390fd5b505050565b6000611f428473ffffffffffffffffffffffffffffffffffffffff16612404565b156120ab578373ffffffffffffffffffffffffffffffffffffffff1663150b7a02611f6b6116a6565b8786866040518563ffffffff1660e01b8152600401611f8d9493929190613c7b565b602060405180830381600087803b158015611fa757600080fd5b505af1925050508015611fd857506040513d601f19601f82011682018060405250810190611fd59190613cdc565b60015b61205b573d8060008114612008576040519150601f19603f3d011682016040523d82523d6000602084013e61200d565b606091505b50600081511415612053576040517f08c379a000000000000000000000000000000000000000000000000000000000815260040161204a90613b75565b60405180910390fd5b805181602001fd5b63150b7a0260e01b7bffffffffffffffffffffffffffffffffffffffffffffffffffffffff1916817bffffffffffffffffffffffffffffffffffffffffffffffffffffffff1916149150506120b0565b600190505b949350505050565b60007f01ffc9a7000000000000000000000000000000000000000000000000000000007bffffffffffffffffffffffffffffffffffffffffffffffffffffffff1916827bffffffffffffffffffffffffffffffffffffffffffffffffffffffff1916149050919050565b61212d838383612417565b600073ffffffffffffffffffffffffffffffffffffffff168373ffffffffffffffffffffffffffffffffffffffff1614156121705761216b8161241c565b6121af565b8173ffffffffffffffffffffffffffffffffffffffff168373ffffffffffffffffffffffffffffffffffffffff16146121ae576121ad8382612465565b5b5b600073ffffffffffffffffffffffffffffffffffffffff168273ffffffffffffffffffffffffffffffffffffffff1614156121f2576121ed816125d2565b612231565b8273ffffffffffffffffffffffffffffffffffffffff168273ffffffffffffffffffffffffffffffffffffffff16146122305761222f82826126a3565b5b5b505050565b600073ffffffffffffffffffffffffffffffffffffffff168273ffffffffffffffffffffffffffffffffffffffff1614156122a6576040517f08c379a000000000000000000000000000000000000000000000000000000000815260040161229d90613d55565b60405180910390fd5b6122af8161163a565b156122ef576040517f08c379a00000000000000000000000000000000000000000000000000000000081526004016122e690613dc1565b60405180910390fd5b6122fb60008383611eb6565b6001600360008473ffffffffffffffffffffffffffffffffffffffff1673ffffffffffffffffffffffffffffffffffffffff168152602001908152602001600020600082825461234b919061345a565b92505081905550816002600083815260200190815260200160002060006101000a81548173ffffffffffffffffffffffffffffffffffffffff021916908373ffffffffffffffffffffffffffffffffffffffff160217905550808273ffffffffffffffffffffffffffffffffffffffff16600073ffffffffffffffffffffffffffffffffffffffff167fddf252ad1be2c89b69c2b068fc378daa952ba7f163c4a11628f55a4df523b3ef60405160405180910390a45050565b600080823b905060008111915050919050565b505050565b6008805490506009600083815260200190815260200160002081905550600881908060018154018082558091505060019003906000526020600020016000909190919091505550565b6000600161247284610cb9565b61247c9190613acf565b9050600060076000848152602001908152602001600020549050818114612561576000600660008673ffffffffffffffffffffffffffffffffffffffff1673ffffffffffffffffffffffffffffffffffffffff168152602001908152602001600020600084815260200190815260200160002054905080600660008773ffffffffffffffffffffffffffffffffffffffff1673ffffffffffffffffffffffffffffffffffffffff168152602001908152602001600020600084815260200190815260200160002081905550816007600083815260200190815260200160002081905550505b6007600084815260200190815260200160002060009055600660008573ffffffffffffffffffffffffffffffffffffffff1673ffffffffffffffffffffffffffffffffffffffff16815260200190815260200160002060008381526020019081526020016000206000905550505050565b600060016008805490506125e69190613acf565b9050600060096000848152602001908152602001600020549050600060088381548110612616576126156132d8565b5b906000526020600020015490508060088381548110612638576126376132d8565b5b90600052602060002001819055508160096000838152602001908152602001600020819055506009600085815260200190815260200160002060009055600880548061268757612686613de1565b5b6001900381819060005260206000200160009055905550505050565b60006126ae83610cb9565b905081600660008573ffffffffffffffffffffffffffffffffffffffff1673ffffffffffffffffffffffffffffffffffffffff168152602001908152602001600020600083815260200190815260200160002081905550806007600084815260200190815260200160002081905550505050565b82805461272e90612ece565b90600052602060002090601f0160209004810192826127505760008555612797565b82601f1061276957805160ff1916838001178555612797565b82800160010185558215612797579182015b8281111561279657825182559160200191906001019061277b565b5b5090506127a491906127a8565b5090565b5b808211156127c15760008160009055506001016127a9565b5090565b6000604051905090565b600080fd5b600080fd5b60007fffffffff0000000000000000000000000000000000000000000000000000000082169050919050565b61280e816127d9565b811461281957600080fd5b50565b60008135905061282b81612805565b92915050565b600060208284031215612847576128466127cf565b5b60006128558482850161281c565b91505092915050565b60008115159050919050565b6128738161285e565b82525050565b600060208201905061288e600083018461286a565b92915050565b600081519050919050565b600082825260208201905092915050565b60005b838110156128ce5780820151818401526020810190506128b3565b838111156128dd576000848401525b50505050565b6000601f19601f8301169050919050565b60006128ff82612894565b612909818561289f565b93506129198185602086016128b0565b612922816128e3565b840191505092915050565b6000602082019050818103600083015261294781846128f4565b905092915050565b6000819050919050565b6129628161294f565b811461296d57600080fd5b50565b60008135905061297f81612959565b92915050565b60006020828403121561299b5761299a6127cf565b5b60006129a984828501612970565b91505092915050565b600073ffffffffffffffffffffffffffffffffffffffff82169050919050565b60006129dd826129b2565b9050919050565b6129ed816129d2565b82525050565b6000602082019050612a0860008301846129e4565b92915050565b612a17816129d2565b8114612a2257600080fd5b50565b600081359050612a3481612a0e565b92915050565b60008060408385031215612a5157612a506127cf565b5b6000612a5f85828601612a25565b9250506020612a7085828601612970565b9150509250929050565b612a838161294f565b82525050565b6000602082019050612a9e6000830184612a7a565b92915050565b600080600060608486031215612abd57612abc6127cf565b5b6000612acb86828701612a25565b9350506020612adc86828701612a25565b9250506040612aed86828701612970565b9150509250925092565b600080fd5b600080fd5b7f4e487b7100000000000000000000000000000000000000000000000000000000600052604160045260246000fd5b612b39826128e3565b810181811067ffffffffffffffff82111715612b5857612b57612b01565b5b80604052505050565b6000612b6b6127c5565b9050612b778282612b30565b919050565b600067ffffffffffffffff821115612b9757612b96612b01565b5b612ba0826128e3565b9050602081019050919050565b82818337600083830152505050565b6000612bcf612bca84612b7c565b612b61565b905082815260208101848484011115612beb57612bea612afc565b5b612bf6848285612bad565b509392505050565b600082601f830112612c1357612c12612af7565b5b8135612c23848260208601612bbc565b91505092915050565b600060208284031215612c4257612c416127cf565b5b600082013567ffffffffffffffff811115612c6057612c5f6127d4565b5b612c6c84828501612bfe565b91505092915050565b600060208284031215612c8b57612c8a6127cf565b5b6000612c9984828501612a25565b91505092915050565b612cab8161285e565b8114612cb657600080fd5b50565b600081359050612cc881612ca2565b92915050565b60008060408385031215612ce557612ce46127cf565b5b6000612cf385828601612a25565b9250506020612d0485828601612cb9565b9150509250929050565b600067ffffffffffffffff821115612d2957612d28612b01565b5b612d32826128e3565b9050602081019050919050565b6000612d52612d4d84612d0e565b612b61565b905082815260208101848484011115612d6e57612d6d612afc565b5b612d79848285612bad565b509392505050565b600082601f830112612d9657612d95612af7565b5b8135612da6848260208601612d3f565b91505092915050565b60008060008060808587031215612dc957612dc86127cf565b5b6000612dd787828801612a25565b9450506020612de887828801612a25565b9350506040612df987828801612970565b925050606085013567ffffffffffffffff811115612e1a57612e196127d4565b5b612e2687828801612d81565b91505092959194509250565b600060208284031215612e4857612e476127cf565b5b6000612e5684828501612cb9565b91505092915050565b60008060408385031215612e7657612e756127cf565b5b6000612e8485828601612a25565b9250506020612e9585828601612a25565b9150509250929050565b7f4e487b7100000000000000000000000000000000000000000000000000000000600052602260045260246000fd5b60006002820490506001821680612ee657607f821691505b60208210811415612efa57612ef9612e9f565b5b50919050565b7f4552433732313a20617070726f76656420717565727920666f72206e6f6e657860008201527f697374656e7420746f6b656e0000000000000000000000000000000000000000602082015250565b6000612f5c602c8361289f565b9150612f6782612f00565b604082019050919050565b60006020820190508181036000830152612f8b81612f4f565b9050919050565b7f4552433732313a20617070726f76616c20746f2063757272656e74206f776e6560008201527f7200000000000000000000000000000000000000000000000000000000000000602082015250565b6000612fee60218361289f565b9150612ff982612f92565b604082019050919050565b6000602082019050818103600083015261301d81612fe1565b9050919050565b7f4552433732313a20617070726f76652063616c6c6572206973206e6f74206f7760008201527f6e6572206e6f7220617070726f76656420666f7220616c6c0000000000000000602082015250565b600061308060388361289f565b915061308b82613024565b604082019050919050565b600060208201905081810360008301526130af81613073565b9050919050565b7f4552433732313a207472616e736665722063616c6c6572206973206e6f74206f60008201527f776e6572206e6f7220617070726f766564000000000000000000000000000000602082015250565b600061311260318361289f565b915061311d826130b6565b604082019050919050565b6000602082019050818103600083015261314181613105565b9050919050565b7f455243373231456e756d657261626c653a206f776e657220696e646578206f7560008201527f74206f6620626f756e6473000000000000000000000000000000000000000000602082015250565b60006131a4602b8361289f565b91506131af82613148565b604082019050919050565b600060208201905081810360008301526131d381613197565b9050919050565b7f4f776e61626c653a2063616c6c6572206973206e6f7420746865206f776e6572600082015250565b600061321060208361289f565b915061321b826131da565b602082019050919050565b6000602082019050818103600083015261323f81613203565b9050919050565b7f455243373231456e756d657261626c653a20676c6f62616c20696e646578206f60008201527f7574206f6620626f756e64730000000000000000000000000000000000000000602082015250565b60006132a2602c8361289f565b91506132ad82613246565b604082019050919050565b600060208201905081810360008301526132d181613295565b9050919050565b7f4e487b7100000000000000000000000000000000000000000000000000000000600052603260045260246000fd5b7f4552433732313a206f776e657220717565727920666f72206e6f6e657869737460008201527f656e7420746f6b656e0000000000000000000000000000000000000000000000602082015250565b600061336360298361289f565b915061336e82613307565b604082019050919050565b6000602082019050818103600083015261339281613356565b9050919050565b7f4552433732313a2062616c616e636520717565727920666f7220746865207a6560008201527f726f206164647265737300000000000000000000000000000000000000000000602082015250565b60006133f5602a8361289f565b915061340082613399565b604082019050919050565b60006020820190508181036000830152613424816133e8565b9050919050565b7f4e487b7100000000000000000000000000000000000000000000000000000000600052601160045260246000fd5b60006134658261294f565b91506134708361294f565b9250827fffffffffffffffffffffffffffffffffffffffffffffffffffffffffffffffff038211156134a5576134a461342b565b5b828201905092915050565b60006134bb8261294f565b91507fffffffffffffffffffffffffffffffffffffffffffffffffffffffffffffffff8214156134ee576134ed61342b565b5b600182019050919050565b7f53616c65206d7573742062652061637469766520746f206d696e7420746f6b6560008201527f6e73000000000000000000000000000000000000000000000000000000000000602082015250565b600061355560228361289f565b9150613560826134f9565b604082019050919050565b6000602082019050818103600083015261358481613548565b9050919050565b7f4578636565646564206d617820746f6b656e2070757263686173650000000000600082015250565b60006135c1601b8361289f565b91506135cc8261358b565b602082019050919050565b600060208201905081810360008301526135f0816135b4565b9050919050565b7f507572636861736520776f756c6420657863656564206d617820746f6b656e73600082015250565b600061362d60208361289f565b9150613638826135f7565b602082019050919050565b6000602082019050818103600083015261365c81613620565b9050919050565b600061366e8261294f565b91506136798361294f565b9250817fffffffffffffffffffffffffffffffffffffffffffffffffffffffffffffffff04831182151516156136b2576136b161342b565b5b828202905092915050565b7f45746865722076616c75652073656e74206973206e6f7420636f727265637400600082015250565b60006136f3601f8361289f565b91506136fe826136bd565b602082019050919050565b60006020820190508181036000830152613722816136e6565b9050919050565b7f4552433732313a20617070726f766520746f2063616c6c657200000000000000600082015250565b600061375f60198361289f565b915061376a82613729565b602082019050919050565b6000602082019050818103600083015261378e81613752565b9050919050565b7f4552433732314d657461646174613a2055524920717565727920666f72206e6f60008201527f6e6578697374656e7420746f6b656e0000000000000000000000000000000000602082015250565b60006137f1602f8361289f565b91506137fc82613795565b604082019050919050565b60006020820190508181036000830152613820816137e4565b9050919050565b600081905092915050565b600061383d82612894565b6138478185613827565b93506138578185602086016128b0565b80840191505092915050565b600061386f8285613832565b915061387b8284613832565b91508190509392505050565b7f4f776e61626c653a206e6577206f776e657220697320746865207a65726f206160008201527f6464726573730000000000000000000000000000000000000000000000000000602082015250565b60006138e360268361289f565b91506138ee82613887565b604082019050919050565b60006020820190508181036000830152613912816138d6565b9050919050565b7f4552433732313a206f70657261746f7220717565727920666f72206e6f6e657860008201527f697374656e7420746f6b656e0000000000000000000000000000000000000000602082015250565b6000613975602c8361289f565b915061398082613919565b604082019050919050565b600060208201905081810360008301526139a481613968565b9050919050565b7f4552433732313a207472616e73666572206f6620746f6b656e2074686174206960008201527f73206e6f74206f776e0000000000000000000000000000000000000000000000602082015250565b6000613a0760298361289f565b9150613a12826139ab565b604082019050919050565b60006020820190508181036000830152613a36816139fa565b9050919050565b7f4552433732313a207472616e7366657220746f20746865207a65726f2061646460008201527f7265737300000000000000000000000000000000000000000000000000000000602082015250565b6000613a9960248361289f565b9150613aa482613a3d565b604082019050919050565b60006020820190508181036000830152613ac881613a8c565b9050919050565b6000613ada8261294f565b9150613ae58361294f565b925082821015613af857613af761342b565b5b828203905092915050565b7f4552433732313a207472616e7366657220746f206e6f6e20455243373231526560008201527f63656976657220696d706c656d656e7465720000000000000000000000000000602082015250565b6000613b5f60328361289f565b9150613b6a82613b03565b604082019050919050565b60006020820190508181036000830152613b8e81613b52565b9050919050565b7f4e487b7100000000000000000000000000000000000000000000000000000000600052601260045260246000fd5b6000613bcf8261294f565b9150613bda8361294f565b925082613bea57613be9613b95565b5b828204905092915050565b6000613c008261294f565b9150613c0b8361294f565b925082613c1b57613c1a613b95565b5b828206905092915050565b600081519050919050565b600082825260208201905092915050565b6000613c4d82613c26565b613c578185613c31565b9350613c678185602086016128b0565b613c70816128e3565b840191505092915050565b6000608082019050613c9060008301876129e4565b613c9d60208301866129e4565b613caa6040830185612a7a565b8181036060830152613cbc8184613c42565b905095945050505050565b600081519050613cd681612805565b92915050565b600060208284031215613cf257613cf16127cf565b5b6000613d0084828501613cc7565b91505092915050565b7f4552433732313a206d696e7420746f20746865207a65726f2061646472657373600082015250565b6000613d3f60208361289f565b9150613d4a82613d09565b602082019050919050565b60006020820190508181036000830152613d6e81613d32565b9050919050565b7f4552433732313a20746f6b656e20616c7265616479206d696e74656400000000600082015250565b6000613dab601c8361289f565b9150613db682613d75565b602082019050919050565b60006020820190508181036000830152613dda81613d9e565b9050919050565b7f4e487b7100000000000000000000000000000000000000000000000000000000600052603160045260246000fdfea26469706673582212205d8ef5c18c5b405f2718c166b22f07becaafafb136508a1e2c5fa82a5a18932b64736f6c6343000809003348797065722044696d656e73696f6e616c2053796d6d6574726963616c204f626a656374",
  "linkReferences": {},
  "deployedLinkReferences": {}
}