{
  "_format": "hh-sol-artifact-1",
  "contractName": "HyperDimensionalNft",
  "sourceName": "contracts/Hyper_D_nft.sol",
  "abi": [
    {
      "inputs": [],
      "stateMutability": "nonpayable",
      "type": "constructor"
    },
    {
      "anonymous": false,
      "inputs": [
        {
          "indexed": true,
          "internalType": "address",
          "name": "owner",
          "type": "address"
        },
        {
          "indexed": true,
          "internalType": "address",
          "name": "approved",
          "type": "address"
        },
        {
          "indexed": true,
          "internalType": "uint256",
          "name": "tokenId",
          "type": "uint256"
        }
      ],
      "name": "Approval",
      "type": "event"
    },
    {
      "anonymous": false,
      "inputs": [
        {
          "indexed": true,
          "internalType": "address",
          "name": "owner",
          "type": "address"
        },
        {
          "indexed": true,
          "internalType": "address",
          "name": "operator",
          "type": "address"
        },
        {
          "indexed": false,
          "internalType": "bool",
          "name": "approved",
          "type": "bool"
        }
      ],
      "name": "ApprovalForAll",
      "type": "event"
    },
    {
      "anonymous": false,
      "inputs": [
        {
          "indexed": true,
          "internalType": "address",
          "name": "previousOwner",
          "type": "address"
        },
        {
          "indexed": true,
          "internalType": "address",
          "name": "newOwner",
          "type": "address"
        }
      ],
      "name": "OwnershipTransferred",
      "type": "event"
    },
    {
      "anonymous": false,
      "inputs": [
        {
          "indexed": true,
          "internalType": "address",
          "name": "from",
          "type": "address"
        },
        {
          "indexed": true,
          "internalType": "address",
          "name": "to",
          "type": "address"
        },
        {
          "indexed": true,
          "internalType": "uint256",
          "name": "tokenId",
          "type": "uint256"
        }
      ],
      "name": "Transfer",
      "type": "event"
    },
    {
      "inputs": [],
      "name": "MAX_PUBLIC_MINT",
      "outputs": [
        {
          "internalType": "uint256",
          "name": "",
          "type": "uint256"
        }
      ],
      "stateMutability": "view",
      "type": "function"
    },
    {
      "inputs": [],
      "name": "MAX_SUPPLY",
      "outputs": [
        {
          "internalType": "uint256",
          "name": "",
          "type": "uint256"
        }
      ],
      "stateMutability": "view",
      "type": "function"
    },
    {
      "inputs": [],
      "name": "PRICE_PER_TOKEN",
      "outputs": [
        {
          "internalType": "uint256",
          "name": "",
          "type": "uint256"
        }
      ],
      "stateMutability": "view",
      "type": "function"
    },
    {
      "inputs": [
        {
          "internalType": "address",
          "name": "to",
          "type": "address"
        },
        {
          "internalType": "uint256",
          "name": "tokenId",
          "type": "uint256"
        }
      ],
      "name": "approve",
      "outputs": [],
      "stateMutability": "nonpayable",
      "type": "function"
    },
    {
      "inputs": [
        {
          "internalType": "address",
          "name": "owner",
          "type": "address"
        }
      ],
      "name": "balanceOf",
      "outputs": [
        {
          "internalType": "uint256",
          "name": "",
          "type": "uint256"
        }
      ],
      "stateMutability": "view",
      "type": "function"
    },
    {
      "inputs": [
        {
          "internalType": "uint256",
          "name": "tokenId",
          "type": "uint256"
        }
      ],
      "name": "getApproved",
      "outputs": [
        {
          "internalType": "address",
          "name": "",
          "type": "address"
        }
      ],
      "stateMutability": "view",
      "type": "function"
    },
    {
      "inputs": [
        {
          "internalType": "address",
          "name": "owner",
          "type": "address"
        },
        {
          "internalType": "address",
          "name": "operator",
          "type": "address"
        }
      ],
      "name": "isApprovedForAll",
      "outputs": [
        {
          "internalType": "bool",
          "name": "",
          "type": "bool"
        }
      ],
      "stateMutability": "view",
      "type": "function"
    },
    {
      "inputs": [
        {
          "internalType": "uint256",
          "name": "numberOfTokens",
          "type": "uint256"
        }
      ],
      "name": "mint",
      "outputs": [],
      "stateMutability": "payable",
      "type": "function"
    },
    {
      "inputs": [],
      "name": "name",
      "outputs": [
        {
          "internalType": "string",
          "name": "",
          "type": "string"
        }
      ],
      "stateMutability": "view",
      "type": "function"
    },
    {
      "inputs": [],
      "name": "owner",
      "outputs": [
        {
          "internalType": "address",
          "name": "",
          "type": "address"
        }
      ],
      "stateMutability": "view",
      "type": "function"
    },
    {
      "inputs": [
        {
          "internalType": "uint256",
          "name": "tokenId",
          "type": "uint256"
        }
      ],
      "name": "ownerOf",
      "outputs": [
        {
          "internalType": "address",
          "name": "",
          "type": "address"
        }
      ],
      "stateMutability": "view",
      "type": "function"
    },
    {
      "inputs": [],
      "name": "renounceOwnership",
      "outputs": [],
      "stateMutability": "nonpayable",
      "type": "function"
    },
    {
      "inputs": [
        {
          "internalType": "uint256",
          "name": "n",
          "type": "uint256"
        }
      ],
      "name": "reserve",
      "outputs": [],
      "stateMutability": "nonpayable",
      "type": "function"
    },
    {
      "inputs": [
        {
          "internalType": "address",
          "name": "from",
          "type": "address"
        },
        {
          "internalType": "address",
          "name": "to",
          "type": "address"
        },
        {
          "internalType": "uint256",
          "name": "tokenId",
          "type": "uint256"
        }
      ],
      "name": "safeTransferFrom",
      "outputs": [],
      "stateMutability": "nonpayable",
      "type": "function"
    },
    {
      "inputs": [
        {
          "internalType": "address",
          "name": "from",
          "type": "address"
        },
        {
          "internalType": "address",
          "name": "to",
          "type": "address"
        },
        {
          "internalType": "uint256",
          "name": "tokenId",
          "type": "uint256"
        },
        {
          "internalType": "bytes",
          "name": "_data",
          "type": "bytes"
        }
      ],
      "name": "safeTransferFrom",
      "outputs": [],
      "stateMutability": "nonpayable",
      "type": "function"
    },
    {
      "inputs": [],
      "name": "saleIsActive",
      "outputs": [
        {
          "internalType": "bool",
          "name": "",
          "type": "bool"
        }
      ],
      "stateMutability": "view",
      "type": "function"
    },
    {
      "inputs": [
        {
          "internalType": "address",
          "name": "operator",
          "type": "address"
        },
        {
          "internalType": "bool",
          "name": "approved",
          "type": "bool"
        }
      ],
      "name": "setApprovalForAll",
      "outputs": [],
      "stateMutability": "nonpayable",
      "type": "function"
    },
    {
      "inputs": [
        {
          "internalType": "string",
          "name": "baseURI_",
          "type": "string"
        }
      ],
      "name": "setBaseURI",
      "outputs": [],
      "stateMutability": "nonpayable",
      "type": "function"
    },
    {
      "inputs": [
        {
          "internalType": "bool",
          "name": "newState",
          "type": "bool"
        }
      ],
      "name": "setSaleState",
      "outputs": [],
      "stateMutability": "nonpayable",
      "type": "function"
    },
    {
      "inputs": [
        {
          "internalType": "bytes4",
          "name": "interfaceId",
          "type": "bytes4"
        }
      ],
      "name": "supportsInterface",
      "outputs": [
        {
          "internalType": "bool",
          "name": "",
          "type": "bool"
        }
      ],
      "stateMutability": "view",
      "type": "function"
    },
    {
      "inputs": [],
      "name": "symbol",
      "outputs": [
        {
          "internalType": "string",
          "name": "",
          "type": "string"
        }
      ],
      "stateMutability": "view",
      "type": "function"
    },
    {
      "inputs": [
        {
          "internalType": "uint256",
          "name": "index",
          "type": "uint256"
        }
      ],
      "name": "tokenByIndex",
      "outputs": [
        {
          "internalType": "uint256",
          "name": "",
          "type": "uint256"
        }
      ],
      "stateMutability": "view",
      "type": "function"
    },
    {
      "inputs": [
        {
          "internalType": "address",
          "name": "owner",
          "type": "address"
        },
        {
          "internalType": "uint256",
          "name": "index",
          "type": "uint256"
        }
      ],
      "name": "tokenOfOwnerByIndex",
      "outputs": [
        {
          "internalType": "uint256",
          "name": "",
          "type": "uint256"
        }
      ],
      "stateMutability": "view",
      "type": "function"
    },
    {
      "inputs": [
        {
          "internalType": "uint256",
          "name": "tokenId",
          "type": "uint256"
        }
      ],
      "name": "tokenURI",
      "outputs": [
        {
          "internalType": "string",
          "name": "",
          "type": "string"
        }
      ],
      "stateMutability": "view",
      "type": "function"
    },
    {
      "inputs": [],
      "name": "totalSupply",
      "outputs": [
        {
          "internalType": "uint256",
          "name": "",
          "type": "uint256"
        }
      ],
      "stateMutability": "view",
      "type": "function"
    },
    {
      "inputs": [
        {
          "internalType": "address",
          "name": "from",
          "type": "address"
        },
        {
          "internalType": "address",
          "name": "to",
          "type": "address"
        },
        {
          "internalType": "uint256",
          "name": "tokenId",
          "type": "uint256"
        }
      ],
      "name": "transferFrom",
      "outputs": [],
      "stateMutability": "nonpayable",
      "type": "function"
    },
    {
      "inputs": [
        {
          "internalType": "address",
          "name": "newOwner",
          "type": "address"
        }
      ],
      "name": "transferOwnership",
      "outputs": [],
      "stateMutability": "nonpayable",
      "type": "function"
    },
    {
      "inputs": [],
      "name": "withdraw",
      "outputs": [],
      "stateMutability": "nonpayable",
      "type": "function"
    }
  ],
  "bytecode": "0x60806040526000600a60146101000a81548160ff0219169083151502179055503480156200002c57600080fd5b506040518060600160405280602481526020016200410e602491396040518060400160405280600681526020017f4859504552440000000000000000000000000000000000000000000000000000815250816000908051906020019062000095929190620001a5565b508060019080519060200190620000ae929190620001a5565b505050620000d1620000c5620000d760201b60201c565b620000df60201b60201c565b620002ba565b600033905090565b6000600a60009054906101000a900473ffffffffffffffffffffffffffffffffffffffff16905081600a60006101000a81548173ffffffffffffffffffffffffffffffffffffffff021916908373ffffffffffffffffffffffffffffffffffffffff1602179055508173ffffffffffffffffffffffffffffffffffffffff168173ffffffffffffffffffffffffffffffffffffffff167f8be0079c531659141344cd1fd0a4f28419497f9722a3daafe3b4186f6b6457e060405160405180910390a35050565b828054620001b39062000284565b90600052602060002090601f016020900481019282620001d7576000855562000223565b82601f10620001f257805160ff191683800117855562000223565b8280016001018555821562000223579182015b828111156200022257825182559160200191906001019062000205565b5b50905062000232919062000236565b5090565b5b808211156200025157600081600090555060010162000237565b5090565b7f4e487b7100000000000000000000000000000000000000000000000000000000600052602260045260246000fd5b600060028204905060018216806200029d57607f821691505b60208210811415620002b457620002b362000255565b5b50919050565b613e4480620002ca6000396000f3fe6080604052600436106101b75760003560e01c806370a08231116100ec578063a22cb4651161008a578063c87b56dd11610064578063c87b56dd146105e9578063e985e9c514610626578063eb8d244414610663578063f2fde38b1461068e576101b7565b8063a22cb4651461056e578063b88d4fde14610597578063c4e37095146105c0576101b7565b8063833b9499116100c6578063833b9499146104d15780638da5cb5b146104fc57806395d89b4114610527578063a0712d6814610552576101b7565b806370a0823114610454578063715018a614610491578063819b25ba146104a8576101b7565b806332cb6b0c116101595780634f6ccce7116101335780634f6ccce71461038657806355f804b3146103c35780636352211e146103ec57806365f1309714610429576101b7565b806332cb6b0c1461031b5780633ccfd60b1461034657806342842e0e1461035d576101b7565b8063095ea7b311610195578063095ea7b31461026157806318160ddd1461028a57806323b872dd146102b55780632f745c59146102de576101b7565b806301ffc9a7146101bc57806306fdde03146101f9578063081812fc14610224575b600080fd5b3480156101c857600080fd5b506101e360048036038101906101de919061282f565b6106b7565b6040516101f09190612877565b60405180910390f35b34801561020557600080fd5b5061020e6106c9565b60405161021b919061292b565b60405180910390f35b34801561023057600080fd5b5061024b60048036038101906102469190612983565b61075b565b60405161025891906129f1565b60405180910390f35b34801561026d57600080fd5b5061028860048036038101906102839190612a38565b6107e0565b005b34801561029657600080fd5b5061029f6108f8565b6040516102ac9190612a87565b60405180910390f35b3480156102c157600080fd5b506102dc60048036038101906102d79190612aa2565b610905565b005b3480156102ea57600080fd5b5061030560048036038101906103009190612a38565b610965565b6040516103129190612a87565b60405180910390f35b34801561032757600080fd5b50610330610a0a565b60405161033d9190612a87565b60405180910390f35b34801561035257600080fd5b5061035b610a10565b005b34801561036957600080fd5b50610384600480360381019061037f9190612aa2565b610adb565b005b34801561039257600080fd5b506103ad60048036038101906103a89190612983565b610afb565b6040516103ba9190612a87565b60405180910390f35b3480156103cf57600080fd5b506103ea60048036038101906103e59190612c2a565b610b6c565b005b3480156103f857600080fd5b50610413600480360381019061040e9190612983565b610c02565b60405161042091906129f1565b60405180910390f35b34801561043557600080fd5b5061043e610cb4565b60405161044b9190612a87565b60405180910390f35b34801561046057600080fd5b5061047b60048036038101906104769190612c73565b610cb9565b6040516104889190612a87565b60405180910390f35b34801561049d57600080fd5b506104a6610d71565b005b3480156104b457600080fd5b506104cf60048036038101906104ca9190612983565b610df9565b005b3480156104dd57600080fd5b506104e6610eb9565b6040516104f39190612a87565b60405180910390f35b34801561050857600080fd5b50610511610ec4565b60405161051e91906129f1565b60405180910390f35b34801561053357600080fd5b5061053c610eee565b604051610549919061292b565b60405180910390f35b61056c60048036038101906105679190612983565b610f80565b005b34801561057a57600080fd5b5061059560048036038101906105909190612ccc565b6110fc565b005b3480156105a357600080fd5b506105be60048036038101906105b99190612dad565b61127d565b005b3480156105cc57600080fd5b506105e760048036038101906105e29190612e30565b6112df565b005b3480156105f557600080fd5b50610610600480360381019061060b9190612983565b611378565b60405161061d919061292b565b60405180910390f35b34801561063257600080fd5b5061064d60048036038101906106489190612e5d565b61141f565b60405161065a9190612877565b60405180910390f35b34801561066f57600080fd5b506106786114b3565b6040516106859190612877565b60405180910390f35b34801561069a57600080fd5b506106b560048036038101906106b09190612c73565b6114c6565b005b60006106c2826115be565b9050919050565b6060600080546106d890612ecc565b80601f016020809104026020016040519081016040528092919081815260200182805461070490612ecc565b80156107515780601f1061072657610100808354040283529160200191610751565b820191906000526020600020905b81548152906001019060200180831161073457829003601f168201915b5050505050905090565b600061076682611638565b6107a5576040517f08c379a000000000000000000000000000000000000000000000000000000000815260040161079c90612f70565b60405180910390fd5b6004600083815260200190815260200160002060009054906101000a900473ffffffffffffffffffffffffffffffffffffffff169050919050565b60006107eb82610c02565b90508073ffffffffffffffffffffffffffffffffffffffff168373ffffffffffffffffffffffffffffffffffffffff16141561085c576040517f08c379a000000000000000000000000000000000000000000000000000000000815260040161085390613002565b60405180910390fd5b8073ffffffffffffffffffffffffffffffffffffffff1661087b6116a4565b73ffffffffffffffffffffffffffffffffffffffff1614806108aa57506108a9816108a46116a4565b61141f565b5b6108e9576040517f08c379a00000000000000000000000000000000000000000000000000000000081526004016108e090613094565b60405180910390fd5b6108f383836116ac565b505050565b6000600880549050905090565b6109166109106116a4565b82611765565b610955576040517f08c379a000000000000000000000000000000000000000000000000000000000815260040161094c90613126565b60405180910390fd5b610960838383611843565b505050565b600061097083610cb9565b82106109b1576040517f08c379a00000000000000000000000000000000000000000000000000000000081526004016109a8906131b8565b60405180910390fd5b600660008473ffffffffffffffffffffffffffffffffffffffff1673ffffffffffffffffffffffffffffffffffffffff168152602001908152602001600020600083815260200190815260200160002054905092915050565b61271081565b610a186116a4565b73ffffffffffffffffffffffffffffffffffffffff16610a36610ec4565b73ffffffffffffffffffffffffffffffffffffffff1614610a8c576040517f08c379a0000000000000000000000000000000000000000000000000000000008152600401610a8390613224565b60405180910390fd5b60004790503373ffffffffffffffffffffffffffffffffffffffff166108fc829081150290604051600060405180830381858888f19350505050158015610ad7573d6000803e3d6000fd5b5050565b610af68383836040518060200160405280600081525061127d565b505050565b6000610b056108f8565b8210610b46576040517f08c379a0000000000000000000000000000000000000000000000000000000008152600401610b3d906132b6565b60405180910390fd5b60088281548110610b5a57610b596132d6565b5b90600052602060002001549050919050565b610b746116a4565b73ffffffffffffffffffffffffffffffffffffffff16610b92610ec4565b73ffffffffffffffffffffffffffffffffffffffff1614610be8576040517f08c379a0000000000000000000000000000000000000000000000000000000008152600401610bdf90613224565b60405180910390fd5b80600b9080519060200190610bfe929190612720565b5050565b6000806002600084815260200190815260200160002060009054906101000a900473ffffffffffffffffffffffffffffffffffffffff169050600073ffffffffffffffffffffffffffffffffffffffff168173ffffffffffffffffffffffffffffffffffffffff161415610cab576040517f08c379a0000000000000000000000000000000000000000000000000000000008152600401610ca290613377565b60405180910390fd5b80915050919050565b600a81565b60008073ffffffffffffffffffffffffffffffffffffffff168273ffffffffffffffffffffffffffffffffffffffff161415610d2a576040517f08c379a0000000000000000000000000000000000000000000000000000000008152600401610d2190613409565b60405180910390fd5b600360008373ffffffffffffffffffffffffffffffffffffffff1673ffffffffffffffffffffffffffffffffffffffff168152602001908152602001600020549050919050565b610d796116a4565b73ffffffffffffffffffffffffffffffffffffffff16610d97610ec4565b73ffffffffffffffffffffffffffffffffffffffff1614610ded576040517f08c379a0000000000000000000000000000000000000000000000000000000008152600401610de490613224565b60405180910390fd5b610df76000611a9f565b565b610e016116a4565b73ffffffffffffffffffffffffffffffffffffffff16610e1f610ec4565b73ffffffffffffffffffffffffffffffffffffffff1614610e75576040517f08c379a0000000000000000000000000000000000000000000000000000000008152600401610e6c90613224565b60405180910390fd5b6000610e7f6108f8565b905060005b82811015610eb457610ea1338284610e9c9190613458565b611b65565b8080610eac906134ae565b915050610e84565b505050565b6670f9ee77db800081565b6000600a60009054906101000a900473ffffffffffffffffffffffffffffffffffffffff16905090565b606060018054610efd90612ecc565b80601f0160208091040260200160405190810160405280929190818152602001828054610f2990612ecc565b8015610f765780601f10610f4b57610100808354040283529160200191610f76565b820191906000526020600020905b815481529060010190602001808311610f5957829003601f168201915b5050505050905090565b6000610f8a6108f8565b9050600a60149054906101000a900460ff16610fdb576040517f08c379a0000000000000000000000000000000000000000000000000000000008152600401610fd290613569565b60405180910390fd5b600a82111561101f576040517f08c379a0000000000000000000000000000000000000000000000000000000008152600401611016906135d5565b60405180910390fd5b612710828261102e9190613458565b111561106f576040517f08c379a000000000000000000000000000000000000000000000000000000000815260040161106690613641565b60405180910390fd5b34826670f9ee77db80006110839190613661565b11156110c4576040517f08c379a00000000000000000000000000000000000000000000000000000000081526004016110bb90613707565b60405180910390fd5b60005b828110156110f7576110e43382846110df9190613458565b611b65565b80806110ef906134ae565b9150506110c7565b505050565b6111046116a4565b73ffffffffffffffffffffffffffffffffffffffff168273ffffffffffffffffffffffffffffffffffffffff161415611172576040517f08c379a000000000000000000000000000000000000000000000000000000000815260040161116990613773565b60405180910390fd5b806005600061117f6116a4565b73ffffffffffffffffffffffffffffffffffffffff1673ffffffffffffffffffffffffffffffffffffffff16815260200190815260200160002060008473ffffffffffffffffffffffffffffffffffffffff1673ffffffffffffffffffffffffffffffffffffffff16815260200190815260200160002060006101000a81548160ff0219169083151502179055508173ffffffffffffffffffffffffffffffffffffffff1661122c6116a4565b73ffffffffffffffffffffffffffffffffffffffff167f17307eab39ab6107e8899845ad3d59bd9653f200f220920489ca2b5937696c31836040516112719190612877565b60405180910390a35050565b61128e6112886116a4565b83611765565b6112cd576040517f08c379a00000000000000000000000000000000000000000000000000000000081526004016112c490613126565b60405180910390fd5b6112d984848484611b83565b50505050565b6112e76116a4565b73ffffffffffffffffffffffffffffffffffffffff16611305610ec4565b73ffffffffffffffffffffffffffffffffffffffff161461135b576040517f08c379a000000000000000000000000000000000000000000000000000000000815260040161135290613224565b60405180910390fd5b80600a60146101000a81548160ff02191690831515021790555050565b606061138382611638565b6113c2576040517f08c379a00000000000000000000000000000000000000000000000000000000081526004016113b990613805565b60405180910390fd5b60006113cc611bdf565b905060008151116113ec5760405180602001604052806000815250611417565b806113f684611c71565b604051602001611407929190613861565b6040516020818303038152906040525b915050919050565b6000600560008473ffffffffffffffffffffffffffffffffffffffff1673ffffffffffffffffffffffffffffffffffffffff16815260200190815260200160002060008373ffffffffffffffffffffffffffffffffffffffff1673ffffffffffffffffffffffffffffffffffffffff16815260200190815260200160002060009054906101000a900460ff16905092915050565b600a60149054906101000a900460ff1681565b6114ce6116a4565b73ffffffffffffffffffffffffffffffffffffffff166114ec610ec4565b73ffffffffffffffffffffffffffffffffffffffff1614611542576040517f08c379a000000000000000000000000000000000000000000000000000000000815260040161153990613224565b60405180910390fd5b600073ffffffffffffffffffffffffffffffffffffffff168173ffffffffffffffffffffffffffffffffffffffff1614156115b2576040517f08c379a00000000000000000000000000000000000000000000000000000000081526004016115a9906138f7565b60405180910390fd5b6115bb81611a9f565b50565b60007f780e9d63000000000000000000000000000000000000000000000000000000007bffffffffffffffffffffffffffffffffffffffffffffffffffffffff1916827bffffffffffffffffffffffffffffffffffffffffffffffffffffffff19161480611631575061163082611dd2565b5b9050919050565b60008073ffffffffffffffffffffffffffffffffffffffff166002600084815260200190815260200160002060009054906101000a900473ffffffffffffffffffffffffffffffffffffffff1673ffffffffffffffffffffffffffffffffffffffff1614159050919050565b600033905090565b816004600083815260200190815260200160002060006101000a81548173ffffffffffffffffffffffffffffffffffffffff021916908373ffffffffffffffffffffffffffffffffffffffff160217905550808273ffffffffffffffffffffffffffffffffffffffff1661171f83610c02565b73ffffffffffffffffffffffffffffffffffffffff167f8c5be1e5ebec7d5bd14f71427d1e84f3dd0314c0f7b2291e5b200ac8c7c3b92560405160405180910390a45050565b600061177082611638565b6117af576040517f08c379a00000000000000000000000000000000000000000000000000000000081526004016117a690613989565b60405180910390fd5b60006117ba83610c02565b90508073ffffffffffffffffffffffffffffffffffffffff168473ffffffffffffffffffffffffffffffffffffffff16148061182957508373ffffffffffffffffffffffffffffffffffffffff166118118461075b565b73ffffffffffffffffffffffffffffffffffffffff16145b8061183a5750611839818561141f565b5b91505092915050565b8273ffffffffffffffffffffffffffffffffffffffff1661186382610c02565b73ffffffffffffffffffffffffffffffffffffffff16146118b9576040517f08c379a00000000000000000000000000000000000000000000000000000000081526004016118b090613a1b565b60405180910390fd5b600073ffffffffffffffffffffffffffffffffffffffff168273ffffffffffffffffffffffffffffffffffffffff161415611929576040517f08c379a000000000000000000000000000000000000000000000000000000000815260040161192090613aad565b60405180910390fd5b611934838383611eb4565b61193f6000826116ac565b6001600360008573ffffffffffffffffffffffffffffffffffffffff1673ffffffffffffffffffffffffffffffffffffffff168152602001908152602001600020600082825461198f9190613acd565b925050819055506001600360008473ffffffffffffffffffffffffffffffffffffffff1673ffffffffffffffffffffffffffffffffffffffff16815260200190815260200160002060008282546119e69190613458565b92505081905550816002600083815260200190815260200160002060006101000a81548173ffffffffffffffffffffffffffffffffffffffff021916908373ffffffffffffffffffffffffffffffffffffffff160217905550808273ffffffffffffffffffffffffffffffffffffffff168473ffffffffffffffffffffffffffffffffffffffff167fddf252ad1be2c89b69c2b068fc378daa952ba7f163c4a11628f55a4df523b3ef60405160405180910390a4505050565b6000600a60009054906101000a900473ffffffffffffffffffffffffffffffffffffffff16905081600a60006101000a81548173ffffffffffffffffffffffffffffffffffffffff021916908373ffffffffffffffffffffffffffffffffffffffff1602179055508173ffffffffffffffffffffffffffffffffffffffff168173ffffffffffffffffffffffffffffffffffffffff167f8be0079c531659141344cd1fd0a4f28419497f9722a3daafe3b4186f6b6457e060405160405180910390a35050565b611b7f828260405180602001604052806000815250611ec4565b5050565b611b8e848484611843565b611b9a84848484611f1f565b611bd9576040517f08c379a0000000000000000000000000000000000000000000000000000000008152600401611bd090613b73565b60405180910390fd5b50505050565b6060600b8054611bee90612ecc565b80601f0160208091040260200160405190810160405280929190818152602001828054611c1a90612ecc565b8015611c675780601f10611c3c57610100808354040283529160200191611c67565b820191906000526020600020905b815481529060010190602001808311611c4a57829003601f168201915b5050505050905090565b60606000821415611cb9576040518060400160405280600181526020017f30000000000000000000000000000000000000000000000000000000000000008152509050611dcd565b600082905060005b60008214611ceb578080611cd4906134ae565b915050600a82611ce49190613bc2565b9150611cc1565b60008167ffffffffffffffff811115611d0757611d06612aff565b5b6040519080825280601f01601f191660200182016040528015611d395781602001600182028036833780820191505090505b5090505b60008514611dc657600182611d529190613acd565b9150600a85611d619190613bf3565b6030611d6d9190613458565b60f81b818381518110611d8357611d826132d6565b5b60200101907effffffffffffffffffffffffffffffffffffffffffffffffffffffffffffff1916908160001a905350600a85611dbf9190613bc2565b9450611d3d565b8093505050505b919050565b60007f80ac58cd000000000000000000000000000000000000000000000000000000007bffffffffffffffffffffffffffffffffffffffffffffffffffffffff1916827bffffffffffffffffffffffffffffffffffffffffffffffffffffffff19161480611e9d57507f5b5e139f000000000000000000000000000000000000000000000000000000007bffffffffffffffffffffffffffffffffffffffffffffffffffffffff1916827bffffffffffffffffffffffffffffffffffffffffffffffffffffffff1916145b80611ead5750611eac826120b6565b5b9050919050565b611ebf838383612120565b505050565b611ece8383612234565b611edb6000848484611f1f565b611f1a576040517f08c379a0000000000000000000000000000000000000000000000000000000008152600401611f1190613b73565b60405180910390fd5b505050565b6000611f408473ffffffffffffffffffffffffffffffffffffffff16612402565b156120a9578373ffffffffffffffffffffffffffffffffffffffff1663150b7a02611f696116a4565b8786866040518563ffffffff1660e01b8152600401611f8b9493929190613c79565b602060405180830381600087803b158015611fa557600080fd5b505af1925050508015611fd657506040513d601f19601f82011682018060405250810190611fd39190613cda565b60015b612059573d8060008114612006576040519150601f19603f3d011682016040523d82523d6000602084013e61200b565b606091505b50600081511415612051576040517f08c379a000000000000000000000000000000000000000000000000000000000815260040161204890613b73565b60405180910390fd5b805181602001fd5b63150b7a0260e01b7bffffffffffffffffffffffffffffffffffffffffffffffffffffffff1916817bffffffffffffffffffffffffffffffffffffffffffffffffffffffff1916149150506120ae565b600190505b949350505050565b60007f01ffc9a7000000000000000000000000000000000000000000000000000000007bffffffffffffffffffffffffffffffffffffffffffffffffffffffff1916827bffffffffffffffffffffffffffffffffffffffffffffffffffffffff1916149050919050565b61212b838383612415565b600073ffffffffffffffffffffffffffffffffffffffff168373ffffffffffffffffffffffffffffffffffffffff16141561216e576121698161241a565b6121ad565b8173ffffffffffffffffffffffffffffffffffffffff168373ffffffffffffffffffffffffffffffffffffffff16146121ac576121ab8382612463565b5b5b600073ffffffffffffffffffffffffffffffffffffffff168273ffffffffffffffffffffffffffffffffffffffff1614156121f0576121eb816125d0565b61222f565b8273ffffffffffffffffffffffffffffffffffffffff168273ffffffffffffffffffffffffffffffffffffffff161461222e5761222d82826126a1565b5b5b505050565b600073ffffffffffffffffffffffffffffffffffffffff168273ffffffffffffffffffffffffffffffffffffffff1614156122a4576040517f08c379a000000000000000000000000000000000000000000000000000000000815260040161229b90613d53565b60405180910390fd5b6122ad81611638565b156122ed576040517f08c379a00000000000000000000000000000000000000000000000000000000081526004016122e490613dbf565b60405180910390fd5b6122f960008383611eb4565b6001600360008473ffffffffffffffffffffffffffffffffffffffff1673ffffffffffffffffffffffffffffffffffffffff16815260200190815260200160002060008282546123499190613458565b92505081905550816002600083815260200190815260200160002060006101000a81548173ffffffffffffffffffffffffffffffffffffffff021916908373ffffffffffffffffffffffffffffffffffffffff160217905550808273ffffffffffffffffffffffffffffffffffffffff16600073ffffffffffffffffffffffffffffffffffffffff167fddf252ad1be2c89b69c2b068fc378daa952ba7f163c4a11628f55a4df523b3ef60405160405180910390a45050565b600080823b905060008111915050919050565b505050565b6008805490506009600083815260200190815260200160002081905550600881908060018154018082558091505060019003906000526020600020016000909190919091505550565b6000600161247084610cb9565b61247a9190613acd565b905060006007600084815260200190815260200160002054905081811461255f576000600660008673ffffffffffffffffffffffffffffffffffffffff1673ffffffffffffffffffffffffffffffffffffffff168152602001908152602001600020600084815260200190815260200160002054905080600660008773ffffffffffffffffffffffffffffffffffffffff1673ffffffffffffffffffffffffffffffffffffffff168152602001908152602001600020600084815260200190815260200160002081905550816007600083815260200190815260200160002081905550505b6007600084815260200190815260200160002060009055600660008573ffffffffffffffffffffffffffffffffffffffff1673ffffffffffffffffffffffffffffffffffffffff16815260200190815260200160002060008381526020019081526020016000206000905550505050565b600060016008805490506125e49190613acd565b9050600060096000848152602001908152602001600020549050600060088381548110612614576126136132d6565b5b906000526020600020015490508060088381548110612636576126356132d6565b5b90600052602060002001819055508160096000838152602001908152602001600020819055506009600085815260200190815260200160002060009055600880548061268557612684613ddf565b5b6001900381819060005260206000200160009055905550505050565b60006126ac83610cb9565b905081600660008573ffffffffffffffffffffffffffffffffffffffff1673ffffffffffffffffffffffffffffffffffffffff168152602001908152602001600020600083815260200190815260200160002081905550806007600084815260200190815260200160002081905550505050565b82805461272c90612ecc565b90600052602060002090601f01602090048101928261274e5760008555612795565b82601f1061276757805160ff1916838001178555612795565b82800160010185558215612795579182015b82811115612794578251825591602001919060010190612779565b5b5090506127a291906127a6565b5090565b5b808211156127bf5760008160009055506001016127a7565b5090565b6000604051905090565b600080fd5b600080fd5b60007fffffffff0000000000000000000000000000000000000000000000000000000082169050919050565b61280c816127d7565b811461281757600080fd5b50565b60008135905061282981612803565b92915050565b600060208284031215612845576128446127cd565b5b60006128538482850161281a565b91505092915050565b60008115159050919050565b6128718161285c565b82525050565b600060208201905061288c6000830184612868565b92915050565b600081519050919050565b600082825260208201905092915050565b60005b838110156128cc5780820151818401526020810190506128b1565b838111156128db576000848401525b50505050565b6000601f19601f8301169050919050565b60006128fd82612892565b612907818561289d565b93506129178185602086016128ae565b612920816128e1565b840191505092915050565b6000602082019050818103600083015261294581846128f2565b905092915050565b6000819050919050565b6129608161294d565b811461296b57600080fd5b50565b60008135905061297d81612957565b92915050565b600060208284031215612999576129986127cd565b5b60006129a78482850161296e565b91505092915050565b600073ffffffffffffffffffffffffffffffffffffffff82169050919050565b60006129db826129b0565b9050919050565b6129eb816129d0565b82525050565b6000602082019050612a0660008301846129e2565b92915050565b612a15816129d0565b8114612a2057600080fd5b50565b600081359050612a3281612a0c565b92915050565b60008060408385031215612a4f57612a4e6127cd565b5b6000612a5d85828601612a23565b9250506020612a6e8582860161296e565b9150509250929050565b612a818161294d565b82525050565b6000602082019050612a9c6000830184612a78565b92915050565b600080600060608486031215612abb57612aba6127cd565b5b6000612ac986828701612a23565b9350506020612ada86828701612a23565b9250506040612aeb8682870161296e565b9150509250925092565b600080fd5b600080fd5b7f4e487b7100000000000000000000000000000000000000000000000000000000600052604160045260246000fd5b612b37826128e1565b810181811067ffffffffffffffff82111715612b5657612b55612aff565b5b80604052505050565b6000612b696127c3565b9050612b758282612b2e565b919050565b600067ffffffffffffffff821115612b9557612b94612aff565b5b612b9e826128e1565b9050602081019050919050565b82818337600083830152505050565b6000612bcd612bc884612b7a565b612b5f565b905082815260208101848484011115612be957612be8612afa565b5b612bf4848285612bab565b509392505050565b600082601f830112612c1157612c10612af5565b5b8135612c21848260208601612bba565b91505092915050565b600060208284031215612c4057612c3f6127cd565b5b600082013567ffffffffffffffff811115612c5e57612c5d6127d2565b5b612c6a84828501612bfc565b91505092915050565b600060208284031215612c8957612c886127cd565b5b6000612c9784828501612a23565b91505092915050565b612ca98161285c565b8114612cb457600080fd5b50565b600081359050612cc681612ca0565b92915050565b60008060408385031215612ce357612ce26127cd565b5b6000612cf185828601612a23565b9250506020612d0285828601612cb7565b9150509250929050565b600067ffffffffffffffff821115612d2757612d26612aff565b5b612d30826128e1565b9050602081019050919050565b6000612d50612d4b84612d0c565b612b5f565b905082815260208101848484011115612d6c57612d6b612afa565b5b612d77848285612bab565b509392505050565b600082601f830112612d9457612d93612af5565b5b8135612da4848260208601612d3d565b91505092915050565b60008060008060808587031215612dc757612dc66127cd565b5b6000612dd587828801612a23565b9450506020612de687828801612a23565b9350506040612df78782880161296e565b925050606085013567ffffffffffffffff811115612e1857612e176127d2565b5b612e2487828801612d7f565b91505092959194509250565b600060208284031215612e4657612e456127cd565b5b6000612e5484828501612cb7565b91505092915050565b60008060408385031215612e7457612e736127cd565b5b6000612e8285828601612a23565b9250506020612e9385828601612a23565b9150509250929050565b7f4e487b7100000000000000000000000000000000000000000000000000000000600052602260045260246000fd5b60006002820490506001821680612ee457607f821691505b60208210811415612ef857612ef7612e9d565b5b50919050565b7f4552433732313a20617070726f76656420717565727920666f72206e6f6e657860008201527f697374656e7420746f6b656e0000000000000000000000000000000000000000602082015250565b6000612f5a602c8361289d565b9150612f6582612efe565b604082019050919050565b60006020820190508181036000830152612f8981612f4d565b9050919050565b7f4552433732313a20617070726f76616c20746f2063757272656e74206f776e6560008201527f7200000000000000000000000000000000000000000000000000000000000000602082015250565b6000612fec60218361289d565b9150612ff782612f90565b604082019050919050565b6000602082019050818103600083015261301b81612fdf565b9050919050565b7f4552433732313a20617070726f76652063616c6c6572206973206e6f74206f7760008201527f6e6572206e6f7220617070726f76656420666f7220616c6c0000000000000000602082015250565b600061307e60388361289d565b915061308982613022565b604082019050919050565b600060208201905081810360008301526130ad81613071565b9050919050565b7f4552433732313a207472616e736665722063616c6c6572206973206e6f74206f60008201527f776e6572206e6f7220617070726f766564000000000000000000000000000000602082015250565b600061311060318361289d565b915061311b826130b4565b604082019050919050565b6000602082019050818103600083015261313f81613103565b9050919050565b7f455243373231456e756d657261626c653a206f776e657220696e646578206f7560008201527f74206f6620626f756e6473000000000000000000000000000000000000000000602082015250565b60006131a2602b8361289d565b91506131ad82613146565b604082019050919050565b600060208201905081810360008301526131d181613195565b9050919050565b7f4f776e61626c653a2063616c6c6572206973206e6f7420746865206f776e6572600082015250565b600061320e60208361289d565b9150613219826131d8565b602082019050919050565b6000602082019050818103600083015261323d81613201565b9050919050565b7f455243373231456e756d657261626c653a20676c6f62616c20696e646578206f60008201527f7574206f6620626f756e64730000000000000000000000000000000000000000602082015250565b60006132a0602c8361289d565b91506132ab82613244565b604082019050919050565b600060208201905081810360008301526132cf81613293565b9050919050565b7f4e487b7100000000000000000000000000000000000000000000000000000000600052603260045260246000fd5b7f4552433732313a206f776e657220717565727920666f72206e6f6e657869737460008201527f656e7420746f6b656e0000000000000000000000000000000000000000000000602082015250565b600061336160298361289d565b915061336c82613305565b604082019050919050565b6000602082019050818103600083015261339081613354565b9050919050565b7f4552433732313a2062616c616e636520717565727920666f7220746865207a6560008201527f726f206164647265737300000000000000000000000000000000000000000000602082015250565b60006133f3602a8361289d565b91506133fe82613397565b604082019050919050565b60006020820190508181036000830152613422816133e6565b9050919050565b7f4e487b7100000000000000000000000000000000000000000000000000000000600052601160045260246000fd5b60006134638261294d565b915061346e8361294d565b9250827fffffffffffffffffffffffffffffffffffffffffffffffffffffffffffffffff038211156134a3576134a2613429565b5b828201905092915050565b60006134b98261294d565b91507fffffffffffffffffffffffffffffffffffffffffffffffffffffffffffffffff8214156134ec576134eb613429565b5b600182019050919050565b7f53616c65206d7573742062652061637469766520746f206d696e7420746f6b6560008201527f6e73000000000000000000000000000000000000000000000000000000000000602082015250565b600061355360228361289d565b915061355e826134f7565b604082019050919050565b6000602082019050818103600083015261358281613546565b9050919050565b7f4578636565646564206d617820746f6b656e2070757263686173650000000000600082015250565b60006135bf601b8361289d565b91506135ca82613589565b602082019050919050565b600060208201905081810360008301526135ee816135b2565b9050919050565b7f507572636861736520776f756c6420657863656564206d617820746f6b656e73600082015250565b600061362b60208361289d565b9150613636826135f5565b602082019050919050565b6000602082019050818103600083015261365a8161361e565b9050919050565b600061366c8261294d565b91506136778361294d565b9250817fffffffffffffffffffffffffffffffffffffffffffffffffffffffffffffffff04831182151516156136b0576136af613429565b5b828202905092915050565b7f45746865722076616c75652073656e74206973206e6f7420636f727265637400600082015250565b60006136f1601f8361289d565b91506136fc826136bb565b602082019050919050565b60006020820190508181036000830152613720816136e4565b9050919050565b7f4552433732313a20617070726f766520746f2063616c6c657200000000000000600082015250565b600061375d60198361289d565b915061376882613727565b602082019050919050565b6000602082019050818103600083015261378c81613750565b9050919050565b7f4552433732314d657461646174613a2055524920717565727920666f72206e6f60008201527f6e6578697374656e7420746f6b656e0000000000000000000000000000000000602082015250565b60006137ef602f8361289d565b91506137fa82613793565b604082019050919050565b6000602082019050818103600083015261381e816137e2565b9050919050565b600081905092915050565b600061383b82612892565b6138458185613825565b93506138558185602086016128ae565b80840191505092915050565b600061386d8285613830565b91506138798284613830565b91508190509392505050565b7f4f776e61626c653a206e6577206f776e657220697320746865207a65726f206160008201527f6464726573730000000000000000000000000000000000000000000000000000602082015250565b60006138e160268361289d565b91506138ec82613885565b604082019050919050565b60006020820190508181036000830152613910816138d4565b9050919050565b7f4552433732313a206f70657261746f7220717565727920666f72206e6f6e657860008201527f697374656e7420746f6b656e0000000000000000000000000000000000000000602082015250565b6000613973602c8361289d565b915061397e82613917565b604082019050919050565b600060208201905081810360008301526139a281613966565b9050919050565b7f4552433732313a207472616e73666572206f6620746f6b656e2074686174206960008201527f73206e6f74206f776e0000000000000000000000000000000000000000000000602082015250565b6000613a0560298361289d565b9150613a10826139a9565b604082019050919050565b60006020820190508181036000830152613a34816139f8565b9050919050565b7f4552433732313a207472616e7366657220746f20746865207a65726f2061646460008201527f7265737300000000000000000000000000000000000000000000000000000000602082015250565b6000613a9760248361289d565b9150613aa282613a3b565b604082019050919050565b60006020820190508181036000830152613ac681613a8a565b9050919050565b6000613ad88261294d565b9150613ae38361294d565b925082821015613af657613af5613429565b5b828203905092915050565b7f4552433732313a207472616e7366657220746f206e6f6e20455243373231526560008201527f63656976657220696d706c656d656e7465720000000000000000000000000000602082015250565b6000613b5d60328361289d565b9150613b6882613b01565b604082019050919050565b60006020820190508181036000830152613b8c81613b50565b9050919050565b7f4e487b7100000000000000000000000000000000000000000000000000000000600052601260045260246000fd5b6000613bcd8261294d565b9150613bd88361294d565b925082613be857613be7613b93565b5b828204905092915050565b6000613bfe8261294d565b9150613c098361294d565b925082613c1957613c18613b93565b5b828206905092915050565b600081519050919050565b600082825260208201905092915050565b6000613c4b82613c24565b613c558185613c2f565b9350613c658185602086016128ae565b613c6e816128e1565b840191505092915050565b6000608082019050613c8e60008301876129e2565b613c9b60208301866129e2565b613ca86040830185612a78565b8181036060830152613cba8184613c40565b905095945050505050565b600081519050613cd481612803565b92915050565b600060208284031215613cf057613cef6127cd565b5b6000613cfe84828501613cc5565b91505092915050565b7f4552433732313a206d696e7420746f20746865207a65726f2061646472657373600082015250565b6000613d3d60208361289d565b9150613d4882613d07565b602082019050919050565b60006020820190508181036000830152613d6c81613d30565b9050919050565b7f4552433732313a20746f6b656e20616c7265616479206d696e74656400000000600082015250565b6000613da9601c8361289d565b9150613db482613d73565b602082019050919050565b60006020820190508181036000830152613dd881613d9c565b9050919050565b7f4e487b7100000000000000000000000000000000000000000000000000000000600052603160045260246000fdfea2646970667358221220fdadcb40510f987599043eb2f72d30923f1a511a9e18459ab602837f559669bf64736f6c6343000809003348797065722044696d656e73696f6e616c2053796d6d6574726963616c204f626a656374",
  "linkReferences": {},
  "deployedLinkReferences": {}
}